{
  "contractName": "Federation",
  "abi": [
    {
      "anonymous": false,
      "inputs": [
        {
          "indexed": false,
          "internalType": "bytes32",
          "name": "serviceId",
          "type": "bytes32"
        }
      ],
      "name": "ConsumerEndpointUpdated",
      "type": "event"
    },
    {
      "anonymous": false,
      "inputs": [
        {
          "indexed": false,
          "internalType": "bytes32",
          "name": "serviceId",
          "type": "bytes32"
        },
        {
          "indexed": false,
          "internalType": "uint256",
          "name": "biderIndex",
          "type": "uint256"
        }
      ],
      "name": "NewBid",
      "type": "event"
    },
    {
      "anonymous": false,
      "inputs": [
        {
          "indexed": false,
          "internalType": "address",
          "name": "operator",
          "type": "address"
        },
        {
          "indexed": false,
          "internalType": "string",
          "name": "name",
          "type": "string"
        }
      ],
      "name": "OperatorRegistered",
      "type": "event"
    },
    {
      "anonymous": false,
      "inputs": [
        {
          "indexed": false,
          "internalType": "address",
          "name": "operator",
          "type": "address"
        }
      ],
      "name": "OperatorRemoved",
      "type": "event"
    },
    {
      "anonymous": false,
      "inputs": [
        {
          "indexed": false,
          "internalType": "bytes32",
          "name": "serviceId",
          "type": "bytes32"
        }
      ],
      "name": "ProviderEndpointUpdated",
      "type": "event"
    },
    {
      "anonymous": false,
      "inputs": [
        {
          "indexed": false,
          "internalType": "bytes32",
          "name": "serviceId",
          "type": "bytes32"
        },
        {
          "indexed": false,
          "internalType": "string",
          "name": "description",
          "type": "string"
        }
      ],
      "name": "ServiceAnnouncement",
      "type": "event"
    },
    {
      "anonymous": false,
      "inputs": [
        {
          "indexed": false,
          "internalType": "bytes32",
          "name": "serviceId",
          "type": "bytes32"
        }
      ],
      "name": "ServiceAnnouncementClosed",
      "type": "event"
    },
    {
      "anonymous": false,
      "inputs": [
        {
          "indexed": false,
          "internalType": "bytes32",
          "name": "serviceId",
          "type": "bytes32"
        }
      ],
      "name": "ServiceCancelled",
      "type": "event"
    },
    {
      "anonymous": false,
      "inputs": [
        {
          "indexed": false,
          "internalType": "bytes32",
          "name": "serviceId",
          "type": "bytes32"
        }
      ],
      "name": "ServiceDeployed",
      "type": "event"
    },
    {
      "inputs": [
        {
          "internalType": "string",
          "name": "name",
          "type": "string"
        }
      ],
      "name": "addOperator",
      "outputs": [],
      "stateMutability": "nonpayable",
      "type": "function"
    },
    {
      "inputs": [],
      "name": "removeOperator",
      "outputs": [],
      "stateMutability": "nonpayable",
      "type": "function"
    },
    {
      "inputs": [
        {
          "internalType": "address",
          "name": "callAddress",
          "type": "address"
        }
      ],
      "name": "getOperatorInfo",
      "outputs": [
        {
          "internalType": "string",
          "name": "name",
          "type": "string"
        },
        {
          "internalType": "address",
          "name": "opAddress",
          "type": "address"
        },
        {
          "internalType": "uint256",
          "name": "registrationTime",
          "type": "uint256"
        },
        {
          "internalType": "bool",
          "name": "registered",
          "type": "bool"
        }
      ],
      "stateMutability": "view",
      "type": "function",
      "constant": true
    },
    {
      "inputs": [
        {
          "internalType": "bytes32",
          "name": "serviceId",
          "type": "bytes32"
        },
        {
          "internalType": "string",
          "name": "description",
          "type": "string"
        },
        {
          "internalType": "uint256",
          "name": "availability",
          "type": "uint256"
        },
        {
          "internalType": "uint256",
          "name": "maxLatencyMs",
          "type": "uint256"
        },
        {
          "internalType": "uint256",
          "name": "maxJitterMs",
          "type": "uint256"
        },
        {
          "internalType": "uint256",
          "name": "minBandwidthMbps",
          "type": "uint256"
        },
        {
          "internalType": "uint256",
          "name": "resourceCpuMillicores",
          "type": "uint256"
        },
        {
          "internalType": "uint256",
          "name": "resourceRamMB",
          "type": "uint256"
        }
      ],
      "name": "announceService",
      "outputs": [],
      "stateMutability": "nonpayable",
      "type": "function"
    },
    {
      "inputs": [
        {
          "internalType": "bool",
          "name": "isProvider",
          "type": "bool"
        },
        {
          "internalType": "bytes32",
          "name": "serviceId",
          "type": "bytes32"
        },
        {
          "internalType": "string",
          "name": "deploymentManifestIpfsCid",
          "type": "string"
        }
      ],
      "name": "updateEndpoint",
      "outputs": [],
      "stateMutability": "nonpayable",
      "type": "function"
    },
    {
      "inputs": [
        {
          "internalType": "bytes32",
          "name": "serviceId",
          "type": "bytes32"
        }
      ],
      "name": "getServiceState",
      "outputs": [
        {
          "internalType": "enum Federation.ServiceState",
          "name": "",
          "type": "uint8"
        }
      ],
      "stateMutability": "view",
      "type": "function",
      "constant": true
    },
    {
      "inputs": [
        {
          "internalType": "bytes32",
          "name": "serviceId",
          "type": "bytes32"
        }
      ],
      "name": "getServiceRequirements",
      "outputs": [
        {
          "internalType": "uint256",
          "name": "availability",
          "type": "uint256"
        },
        {
          "internalType": "uint256",
          "name": "maxLatencyMs",
          "type": "uint256"
        },
        {
          "internalType": "uint256",
          "name": "maxJitterMs",
          "type": "uint256"
        },
        {
          "internalType": "uint256",
          "name": "minBandwidthMbps",
          "type": "uint256"
        },
        {
          "internalType": "uint256",
          "name": "resourceCpuMillicores",
          "type": "uint256"
        },
        {
          "internalType": "uint256",
          "name": "resourceRamMB",
          "type": "uint256"
        }
      ],
      "stateMutability": "view",
      "type": "function",
      "constant": true
    },
    {
      "inputs": [
        {
          "internalType": "bytes32",
          "name": "serviceId",
          "type": "bytes32"
        },
        {
          "internalType": "bool",
          "name": "isProvider",
          "type": "bool"
        },
        {
          "internalType": "address",
          "name": "callAddress",
          "type": "address"
        }
      ],
      "name": "getServiceInfo",
      "outputs": [
        {
          "internalType": "bytes32",
          "name": "",
          "type": "bytes32"
        },
        {
          "internalType": "string",
          "name": "",
          "type": "string"
        },
        {
          "internalType": "string",
          "name": "",
          "type": "string"
        }
      ],
      "stateMutability": "view",
      "type": "function",
      "constant": true
    },
    {
      "inputs": [
        {
          "internalType": "bytes32",
          "name": "endpointId",
          "type": "bytes32"
        },
        {
          "internalType": "address",
          "name": "callAddress",
          "type": "address"
        }
      ],
      "name": "getServiceEndpoint",
      "outputs": [
        {
          "internalType": "string",
          "name": "",
          "type": "string"
        }
      ],
      "stateMutability": "view",
      "type": "function",
      "constant": true
    },
    {
      "inputs": [
        {
          "internalType": "bytes32",
          "name": "serviceId",
          "type": "bytes32"
        },
        {
          "internalType": "uint256",
          "name": "priceWeiPerHour",
          "type": "uint256"
        },
        {
          "internalType": "string",
          "name": "location",
          "type": "string"
        }
      ],
      "name": "placeBid",
      "outputs": [],
      "stateMutability": "nonpayable",
      "type": "function"
    },
    {
      "inputs": [
        {
          "internalType": "bytes32",
          "name": "serviceId",
          "type": "bytes32"
        },
        {
          "internalType": "address",
          "name": "callAddress",
          "type": "address"
        }
      ],
      "name": "getBidCount",
      "outputs": [
        {
          "internalType": "uint256",
          "name": "",
          "type": "uint256"
        }
      ],
      "stateMutability": "view",
      "type": "function",
      "constant": true
    },
    {
      "inputs": [
        {
          "internalType": "bytes32",
          "name": "serviceId",
          "type": "bytes32"
        },
        {
          "internalType": "uint256",
          "name": "index",
          "type": "uint256"
        },
        {
          "internalType": "address",
          "name": "callAddress",
          "type": "address"
        }
      ],
      "name": "getBidInfo",
      "outputs": [
        {
          "internalType": "address",
          "name": "",
          "type": "address"
        },
        {
          "internalType": "uint256",
          "name": "",
          "type": "uint256"
        },
        {
          "internalType": "uint256",
          "name": "",
          "type": "uint256"
        },
        {
          "internalType": "string",
          "name": "",
          "type": "string"
        }
      ],
      "stateMutability": "view",
      "type": "function",
      "constant": true
    },
    {
      "inputs": [
        {
          "internalType": "bytes32",
          "name": "serviceId",
          "type": "bytes32"
        },
        {
          "internalType": "uint256",
          "name": "biderIndex",
          "type": "uint256"
        },
        {
          "internalType": "uint256",
          "name": "expectedHours",
          "type": "uint256"
        }
      ],
      "name": "chooseProvider",
      "outputs": [],
      "stateMutability": "payable",
      "type": "function",
      "payable": true
    },
    {
      "inputs": [
        {
          "internalType": "bytes32",
          "name": "serviceId",
          "type": "bytes32"
        }
      ],
      "name": "withdrawPayment",
      "outputs": [],
      "stateMutability": "nonpayable",
      "type": "function"
    },
    {
      "inputs": [
        {
          "internalType": "bytes32",
          "name": "serviceId",
          "type": "bytes32"
        },
        {
          "internalType": "address",
          "name": "callAddress",
          "type": "address"
        }
      ],
      "name": "isWinner",
      "outputs": [
        {
          "internalType": "bool",
          "name": "",
          "type": "bool"
        }
      ],
      "stateMutability": "view",
      "type": "function",
      "constant": true
    },
    {
      "inputs": [
        {
          "internalType": "bytes32",
          "name": "serviceId",
          "type": "bytes32"
        }
      ],
      "name": "serviceDeployed",
      "outputs": [],
      "stateMutability": "nonpayable",
      "type": "function"
    },
    {
      "inputs": [
        {
          "internalType": "bytes32",
          "name": "serviceId",
          "type": "bytes32"
        }
      ],
      "name": "cancelService",
      "outputs": [],
      "stateMutability": "nonpayable",
      "type": "function"
    },
    {
      "inputs": [
        {
          "internalType": "bytes32",
          "name": "serviceId",
          "type": "bytes32"
        },
        {
          "internalType": "bool",
          "name": "checkProvider",
          "type": "bool"
        }
      ],
      "name": "isEndpointSet",
      "outputs": [
        {
          "internalType": "bool",
          "name": "",
          "type": "bool"
        }
      ],
      "stateMutability": "view",
      "type": "function",
      "constant": true
    }
  ],
  "bytecode": "0x608060405234801561001057600080fd5b50614273806100206000396000f3fe6080604052600436106101095760003560e01c80637d6b2b4911610095578063b46e884311610064578063b46e884314610384578063b6a92f11146103c1578063c5449463146103ea578063d96a28531461042c578063f1bd08901461046957610109565b80637d6b2b49146102a25780639c39dcef146102cb5780639cc19f5b14610308578063a22aeacf1461034557610109565b80633d935eaa116100dc5780633d935eaa146101c157806344620456146101ea5780635ce56833146102135780637886a0f41461023c5780637aaf7a501461027957610109565b806320e545481461010e57806327d9ab5d146101255780632fd9e8be146101655780633ca1a41c14610181575b600080fd5b34801561011a57600080fd5b50610123610492565b005b34801561013157600080fd5b5061014c60048036038101906101479190612fc7565b6105ef565b60405161015c9493929190613ba0565b60405180910390f35b61017f600480360381019061017a91906132c7565b61076c565b005b34801561018d57600080fd5b506101a860048036038101906101a39190613211565b610bd4565b6040516101b89493929190613a43565b60405180910390f35b3480156101cd57600080fd5b506101e860048036038101906101e39190613057565b610e96565b005b3480156101f657600080fd5b50610211600480360381019061020c9190613260565b611182565b005b34801561021f57600080fd5b5061023a60048036038101906102359190613316565b6114d8565b005b34801561024857600080fd5b50610263600480360381019061025e9190613057565b6116f2565b6040516102709190613b63565b60405180910390f35b34801561028557600080fd5b506102a0600480360381019061029b9190613147565b61171f565b005b3480156102ae57600080fd5b506102c960048036038101906102c49190613057565b6119b4565b005b3480156102d757600080fd5b506102f260048036038101906102ed91906130bc565b611cd6565b6040516102ff9190613a8f565b60405180910390f35b34801561031457600080fd5b5061032f600480360381019061032a9190613080565b611daf565b60405161033c9190613a8f565b60405180910390f35b34801561035157600080fd5b5061036c600480360381019061036791906130f8565b611f42565b60405161037b93929190613af5565b60405180910390f35b34801561039057600080fd5b506103ab60048036038101906103a69190613080565b6123a8565b6040516103b89190613eac565b60405180910390f35b3480156103cd57600080fd5b506103e860048036038101906103e39190612ff0565b6124c3565b005b3480156103f657600080fd5b50610411600480360381019061040c9190613057565b6128ac565b60405161042396959493929190613ec7565b60405180910390f35b34801561043857600080fd5b50610453600480360381019061044e9190613080565b6129a4565b6040516104609190613b7e565b60405180910390f35b34801561047557600080fd5b50610490600480360381019061048b9190613057565b612ae2565b005b600360003373ffffffffffffffffffffffffffffffffffffffff1673ffffffffffffffffffffffffffffffffffffffff16815260200190815260200160002060030160009054906101000a900460ff16610521576040517f08c379a000000000000000000000000000000000000000000000000000000000815260040161051890613c8c565b60405180910390fd5b600360003373ffffffffffffffffffffffffffffffffffffffff1673ffffffffffffffffffffffffffffffffffffffff168152602001908152602001600020600080820160006105719190612d78565b6001820160006101000a81549073ffffffffffffffffffffffffffffffffffffffff021916905560028201600090556003820160006101000a81549060ff021916905550507f80c0b871b97b595b16a7741c1b06fed0c6f6f558639f18ccbce50724325dc40d336040516105e591906139f8565b60405180910390a1565b6060600080600080600360008773ffffffffffffffffffffffffffffffffffffffff1673ffffffffffffffffffffffffffffffffffffffff1681526020019081526020016000209050600115158160030160009054906101000a900460ff16151514610690576040517f08c379a000000000000000000000000000000000000000000000000000000000815260040161068790613c8c565b60405180910390fd5b806000018160010160009054906101000a900473ffffffffffffffffffffffffffffffffffffffff1682600201548360030160009054906101000a900460ff168380546106dc906140ce565b80601f0160208091040260200160405190810160405280929190818152602001828054610708906140ce565b80156107555780601f1061072a57610100808354040283529160200191610755565b820191906000526020600020905b81548152906001019060200180831161073857829003601f168201915b505050505093509450945094509450509193509193565b82806002600083815260200190815260200160002060000154146107c5576040517f08c379a00000000000000000000000000000000000000000000000000000000081526004016107bc90613d4c565b60405180910390fd5b833373ffffffffffffffffffffffffffffffffffffffff166002600083815260200190815260200160002060080160019054906101000a900473ffffffffffffffffffffffffffffffffffffffff1673ffffffffffffffffffffffffffffffffffffffff161461086a576040517f08c379a000000000000000000000000000000000000000000000000000000000815260040161086190613bec565b60405180910390fd5b6000600260008781526020019081526020016000209050600060028111156108bb577f4e487b7100000000000000000000000000000000000000000000000000000000600052602160045260246000fd5b8160080160009054906101000a900460ff166002811115610905577f4e487b7100000000000000000000000000000000000000000000000000000000600052602160045260246000fd5b14610945576040517f08c379a000000000000000000000000000000000000000000000000000000000815260040161093c90613dcc565b60405180910390fd5b6001600087815260200190815260200160002080549050851061099d576040517f08c379a000000000000000000000000000000000000000000000000000000000815260040161099490613e8c565b60405180910390fd5b60006001600088815260200190815260200160002086815481106109ea577f4e487b7100000000000000000000000000000000000000000000000000000000600052603260045260246000fd5b906000526020600020906003020190506000858260010154610a0c9190613fbb565b905080341015610a51576040517f08c379a0000000000000000000000000000000000000000000000000000000008152600401610a4890613d8c565b60405180910390fd5b60018360080160006101000a81548160ff02191690836002811115610a9f577f4e487b7100000000000000000000000000000000000000000000000000000000600052602160045260246000fd5b0217905550600160008981526020019081526020016000208781548110610aef577f4e487b7100000000000000000000000000000000000000000000000000000000600052603260045260246000fd5b906000526020600020906003020160000160009054906101000a900473ffffffffffffffffffffffffffffffffffffffff168360090160006101000a81548173ffffffffffffffffffffffffffffffffffffffff021916908373ffffffffffffffffffffffffffffffffffffffff16021790555034600560008a81526020019081526020016000208190555085600660008a8152602001908152602001600020819055507f0fa967e5a697cd5b1a32e3ed8e2a5b983caf2ae1bb54e8fe37fae071347e8fea88604051610bc29190613aaa565b60405180910390a15050505050505050565b600080600060608680600260008381526020019081526020016000206000015414610c34576040517f08c379a0000000000000000000000000000000000000000000000000000000008152600401610c2b90613d4c565b60405180910390fd5b8573ffffffffffffffffffffffffffffffffffffffff16600260008a815260200190815260200160002060080160019054906101000a900473ffffffffffffffffffffffffffffffffffffffff1673ffffffffffffffffffffffffffffffffffffffff1614610cd8576040517f08c379a0000000000000000000000000000000000000000000000000000000008152600401610ccf90613c0c565b60405180910390fd5b6000600160008a815260200190815260200160002090506000818054905011610d36576040517f08c379a0000000000000000000000000000000000000000000000000000000008152600401610d2d90613dec565b60405180910390fd5b80805490508810610d7c576040517f08c379a0000000000000000000000000000000000000000000000000000000008152600401610d7390613e8c565b60405180910390fd5b6000818981548110610db7577f4e487b7100000000000000000000000000000000000000000000000000000000600052603260045260246000fd5b906000526020600020906003020190508060000160009054906101000a900473ffffffffffffffffffffffffffffffffffffffff1681600101548a83600201808054610e02906140ce565b80601f0160208091040260200160405190810160405280929190818152602001828054610e2e906140ce565b8015610e7b5780601f10610e5057610100808354040283529160200191610e7b565b820191906000526020600020905b815481529060010190602001808311610e5e57829003601f168201915b50505050509050965096509650965050505093509350935093565b8080600260008381526020019081526020016000206000015414610eef576040517f08c379a0000000000000000000000000000000000000000000000000000000008152600401610ee690613d4c565b60405180910390fd5b6000600260008481526020019081526020016000209050600280811115610f3f577f4e487b7100000000000000000000000000000000000000000000000000000000600052602160045260246000fd5b8160080160009054906101000a900460ff166002811115610f89577f4e487b7100000000000000000000000000000000000000000000000000000000600052602160045260246000fd5b14610fc9576040517f08c379a0000000000000000000000000000000000000000000000000000000008152600401610fc090613e2c565b60405180910390fd5b3373ffffffffffffffffffffffffffffffffffffffff168160090160009054906101000a900473ffffffffffffffffffffffffffffffffffffffff1673ffffffffffffffffffffffffffffffffffffffff161461105b576040517f08c379a000000000000000000000000000000000000000000000000000000000815260040161105290613cec565b60405180910390fd5b600060056000858152602001908152602001600020549050600081116110b6576040517f08c379a00000000000000000000000000000000000000000000000000000000081526004016110ad90613d0c565b60405180910390fd5b6000600560008681526020019081526020016000208190555060003373ffffffffffffffffffffffffffffffffffffffff16826040516110f5906139e3565b60006040518083038185875af1925050503d8060008114611132576040519150601f19603f3d011682016040523d82523d6000602084013e611137565b606091505b505090508061117b576040517f08c379a000000000000000000000000000000000000000000000000000000000815260040161117290613c4c565b60405180910390fd5b5050505050565b600360003373ffffffffffffffffffffffffffffffffffffffff1673ffffffffffffffffffffffffffffffffffffffff16815260200190815260200160002060030160009054906101000a900460ff16611211576040517f08c379a000000000000000000000000000000000000000000000000000000000815260040161120890613c8c565b60405180910390fd5b828060026000838152602001908152602001600020600001541461126a576040517f08c379a000000000000000000000000000000000000000000000000000000000815260040161126190613d4c565b60405180910390fd5b6000600260008681526020019081526020016000209050600060028111156112bb577f4e487b7100000000000000000000000000000000000000000000000000000000600052602160045260246000fd5b8160080160009054906101000a900460ff166002811115611305577f4e487b7100000000000000000000000000000000000000000000000000000000600052602160045260246000fd5b14611345576040517f08c379a000000000000000000000000000000000000000000000000000000000815260040161133c90613dcc565b60405180910390fd5b60008411611388576040517f08c379a000000000000000000000000000000000000000000000000000000000815260040161137f90613cac565b60405180910390fd5b6001600086815260200190815260200160002060405180606001604052803373ffffffffffffffffffffffffffffffffffffffff16815260200186815260200185815250908060018154018082558091505060019003906000526020600020906003020160009091909190915060008201518160000160006101000a81548173ffffffffffffffffffffffffffffffffffffffff021916908373ffffffffffffffffffffffffffffffffffffffff160217905550602082015181600101556040820151816002019080519060200190611462929190612db8565b50505060006001600087815260200190815260200160002080549050905080600080888152602001908152602001600020819055507fdb578ec7204282ed3ffcec84ef9d2ca9adda7fb0c0b707010bad5cce9f18f41f86826040516114c8929190613b3a565b60405180910390a1505050505050565b600081511161151c576040517f08c379a000000000000000000000000000000000000000000000000000000000815260040161151390613d2c565b60405180910390fd5b600360003373ffffffffffffffffffffffffffffffffffffffff1673ffffffffffffffffffffffffffffffffffffffff16815260200190815260200160002060030160009054906101000a900460ff16156115ac576040517f08c379a00000000000000000000000000000000000000000000000000000000081526004016115a390613d6c565b60405180910390fd5b60405180608001604052808281526020013373ffffffffffffffffffffffffffffffffffffffff16815260200142815260200160011515815250600360003373ffffffffffffffffffffffffffffffffffffffff1673ffffffffffffffffffffffffffffffffffffffff1681526020019081526020016000206000820151816000019080519060200190611641929190612db8565b5060208201518160010160006101000a81548173ffffffffffffffffffffffffffffffffffffffff021916908373ffffffffffffffffffffffffffffffffffffffff1602179055506040820151816002015560608201518160030160006101000a81548160ff0219169083151502179055509050507f11a85ea4a40584362c3d9c17685709a2e02b466ac78d5eb00b6aff73d90f580533826040516116e7929190613a13565b60405180910390a150565b60006002600083815260200190815260200160002060080160009054906101000a900460ff169050919050565b600360003373ffffffffffffffffffffffffffffffffffffffff1673ffffffffffffffffffffffffffffffffffffffff16815260200190815260200160002060030160009054906101000a900460ff166117ae576040517f08c379a00000000000000000000000000000000000000000000000000000000081526004016117a590613c8c565b60405180910390fd5b87600260008a8152602001908152602001600020600001541415611807576040517f08c379a00000000000000000000000000000000000000000000000000000000081526004016117fe90613e6c565b60405180910390fd5b6000611817878787878787612d37565b90506000600260008b8152602001908152602001600020905089816000018190555088816001019080519060200190611851929190612db8565b5060008160080160006101000a81548160ff021916908360028111156118a0577f4e487b7100000000000000000000000000000000000000000000000000000000600052602160045260246000fd5b0217905550338160080160016101000a81548173ffffffffffffffffffffffffffffffffffffffff021916908373ffffffffffffffffffffffffffffffffffffffff160217905550338160090160006101000a81548173ffffffffffffffffffffffffffffffffffffffff021916908373ffffffffffffffffffffffffffffffffffffffff1602179055508181600201600082015181600001556020820151816001015560408201518160020155606082015181600301556080820151816004015560a082015181600501559050507f1f9d577c7e5f1143cf185f915e072fc815fe000d836dd55a38ac2500edb7ed868a8a6040516119a0929190613ac5565b60405180910390a150505050505050505050565b8080600260008381526020019081526020016000206000015414611a0d576040517f08c379a0000000000000000000000000000000000000000000000000000000008152600401611a0490613d4c565b60405180910390fd5b813373ffffffffffffffffffffffffffffffffffffffff166002600083815260200190815260200160002060080160019054906101000a900473ffffffffffffffffffffffffffffffffffffffff1673ffffffffffffffffffffffffffffffffffffffff1614611ab2576040517f08c379a0000000000000000000000000000000000000000000000000000000008152600401611aa990613bec565b60405180910390fd5b6000600260008581526020019081526020016000209050600280811115611b02577f4e487b7100000000000000000000000000000000000000000000000000000000600052602160045260246000fd5b8160080160009054906101000a900460ff166002811115611b4c577f4e487b7100000000000000000000000000000000000000000000000000000000600052602160045260246000fd5b1415611b8d576040517f08c379a0000000000000000000000000000000000000000000000000000000008152600401611b8490613ccc565b60405180910390fd5b60026000858152602001908152602001600020600080820160009055600182016000611bb99190612d78565b600282016000808201600090556001820160009055600282016000905560038201600090556004820160009055600582016000905550506008820160006101000a81549060ff02191690556008820160016101000a81549073ffffffffffffffffffffffffffffffffffffffff02191690556009820160006101000a81549073ffffffffffffffffffffffffffffffffffffffff0219169055600a820160009055600b8201600090555050600160008581526020019081526020016000206000611c839190612e3e565b600080858152602001908152602001600020600090557f7f1af604dcd671396a44df00c2e3bb1670cd61b71cf9266715e24503307fdc8e84604051611cc89190613aaa565b60405180910390a150505050565b60008280600260008381526020019081526020016000206000015414611d31576040517f08c379a0000000000000000000000000000000000000000000000000000000008152600401611d2890613d4c565b60405180910390fd5b6000600260008681526020019081526020016000209050600084611d595781600a0154611d5f565b81600b01545b90506000801b811415611d7757600093505050611da8565b60006004600083815260200190815260200160002090506000816000018054611d9f906140ce565b90501194505050505b5092915050565b60008280600260008381526020019081526020016000206000015414611e0a576040517f08c379a0000000000000000000000000000000000000000000000000000000008152600401611e0190613d4c565b60405180910390fd5b600060026000868152602001908152602001600020905060016002811115611e5b577f4e487b7100000000000000000000000000000000000000000000000000000000600052602160045260246000fd5b8160080160009054906101000a900460ff166002811115611ea5577f4e487b7100000000000000000000000000000000000000000000000000000000600052602160045260246000fd5b14611ee5576040517f08c379a0000000000000000000000000000000000000000000000000000000008152600401611edc90613e0c565b60405180910390fd5b8373ffffffffffffffffffffffffffffffffffffffff168160090160009054906101000a900473ffffffffffffffffffffffffffffffffffffffff1673ffffffffffffffffffffffffffffffffffffffff16149250505092915050565b60006060806000600260008881526020019081526020016000209050600360008673ffffffffffffffffffffffffffffffffffffffff1673ffffffffffffffffffffffffffffffffffffffff16815260200190815260200160002060030160009054906101000a900460ff16611fed576040517f08c379a0000000000000000000000000000000000000000000000000000000008152600401611fe490613c8c565b60405180910390fd5b60016002811115612027577f4e487b7100000000000000000000000000000000000000000000000000000000600052602160045260246000fd5b8160080160009054906101000a900460ff166002811115612071577f4e487b7100000000000000000000000000000000000000000000000000000000600052602160045260246000fd5b10156120b2576040517f08c379a00000000000000000000000000000000000000000000000000000000081526004016120a990613e0c565b60405180910390fd5b6000866120d5576004600083600b015481526020019081526020016000206120ed565b6004600083600a015481526020019081526020016000205b90506000816000018054612100906140ce565b905011612142576040517f08c379a000000000000000000000000000000000000000000000000000000000815260040161213990613c2c565b60405180910390fd5b86156121df578573ffffffffffffffffffffffffffffffffffffffff168260090160009054906101000a900473ffffffffffffffffffffffffffffffffffffffff1673ffffffffffffffffffffffffffffffffffffffff16146121da576040517f08c379a00000000000000000000000000000000000000000000000000000000081526004016121d190613dac565b60405180910390fd5b612272565b8573ffffffffffffffffffffffffffffffffffffffff168260080160019054906101000a900473ffffffffffffffffffffffffffffffffffffffff1673ffffffffffffffffffffffffffffffffffffffff1614612271576040517f08c379a000000000000000000000000000000000000000000000000000000000815260040161226890613e4c565b60405180910390fd5b5b8160000154826001018260000181805461228b906140ce565b80601f01602080910402602001604051908101604052809291908181526020018280546122b7906140ce565b80156123045780601f106122d957610100808354040283529160200191612304565b820191906000526020600020905b8154815290600101906020018083116122e757829003601f168201915b50505050509150808054612317906140ce565b80601f0160208091040260200160405190810160405280929190818152602001828054612343906140ce565b80156123905780601f1061236557610100808354040283529160200191612390565b820191906000526020600020905b81548152906001019060200180831161237357829003601f168201915b50505050509050945094509450505093509350939050565b60008280600260008381526020019081526020016000206000015414612403576040517f08c379a00000000000000000000000000000000000000000000000000000000081526004016123fa90613d4c565b60405180910390fd5b8273ffffffffffffffffffffffffffffffffffffffff166002600086815260200190815260200160002060080160019054906101000a900473ffffffffffffffffffffffffffffffffffffffff1673ffffffffffffffffffffffffffffffffffffffff16146124a7576040517f08c379a000000000000000000000000000000000000000000000000000000000815260040161249e90613c0c565b60405180910390fd5b6000808581526020019081526020016000205491505092915050565b600360003373ffffffffffffffffffffffffffffffffffffffff1673ffffffffffffffffffffffffffffffffffffffff16815260200190815260200160002060030160009054906101000a900460ff16612552576040517f08c379a000000000000000000000000000000000000000000000000000000000815260040161254990613c8c565b60405180910390fd5b81806002600083815260200190815260200160002060000154146125ab576040517f08c379a00000000000000000000000000000000000000000000000000000000081526004016125a290613d4c565b60405180910390fd5b60006002600085815260200190815260200160002090506000836040516020016125d591906139cc565b60405160208183030381529060405280519060200120905060405180602001604052808581525060046000838152602001908152602001600020600082015181600001908051906020019061262b929190612db8565b5090505085156127d1576001600281111561266f577f4e487b7100000000000000000000000000000000000000000000000000000000600052602160045260246000fd5b8260080160009054906101000a900460ff1660028111156126b9577f4e487b7100000000000000000000000000000000000000000000000000000000600052602160045260246000fd5b10156126fa576040517f08c379a00000000000000000000000000000000000000000000000000000000081526004016126f190613e0c565b60405180910390fd5b3373ffffffffffffffffffffffffffffffffffffffff168260090160009054906101000a900473ffffffffffffffffffffffffffffffffffffffff1673ffffffffffffffffffffffffffffffffffffffff161461278c576040517f08c379a000000000000000000000000000000000000000000000000000000000815260040161278390613c6c565b60405180910390fd5b8082600b01819055507f2094534322befeeedff53195b0c1352101623c8d2a3952fe46e7e9419375f63b856040516127c49190613aaa565b60405180910390a16128a4565b3373ffffffffffffffffffffffffffffffffffffffff168260080160019054906101000a900473ffffffffffffffffffffffffffffffffffffffff1673ffffffffffffffffffffffffffffffffffffffff1614612863576040517f08c379a000000000000000000000000000000000000000000000000000000000815260040161285a90613bec565b60405180910390fd5b8082600a01819055507f255ae3e4871c30bcf3205829288381d28ee9f27e570acae5b85e635da02543248560405161289b9190613aaa565b60405180910390a15b505050505050565b600080600080600080868060026000838152602001908152602001600020600001541461290e576040517f08c379a000000000000000000000000000000000000000000000000000000000815260040161290590613d4c565b60405180910390fd5b6000600260008a81526020019081526020016000206002016040518060c001604052908160008201548152602001600182015481526020016002820154815260200160038201548152602001600482015481526020016005820154815250509050806000015181602001518260400151836060015184608001518560a00151975097509750975097509750505091939550919395565b6060600360008373ffffffffffffffffffffffffffffffffffffffff1673ffffffffffffffffffffffffffffffffffffffff16815260200190815260200160002060030160009054906101000a900460ff16612a35576040517f08c379a0000000000000000000000000000000000000000000000000000000008152600401612a2c90613c8c565b60405180910390fd5b6000600460008581526020019081526020016000209050806000018054612a5b906140ce565b80601f0160208091040260200160405190810160405280929190818152602001828054612a87906140ce565b8015612ad45780601f10612aa957610100808354040283529160200191612ad4565b820191906000526020600020905b815481529060010190602001808311612ab757829003601f168201915b505050505091505092915050565b8080600260008381526020019081526020016000206000015414612b3b576040517f08c379a0000000000000000000000000000000000000000000000000000000008152600401612b3290613d4c565b60405180910390fd5b60006002600084815260200190815260200160002090503373ffffffffffffffffffffffffffffffffffffffff168160090160009054906101000a900473ffffffffffffffffffffffffffffffffffffffff1673ffffffffffffffffffffffffffffffffffffffff1614612be4576040517f08c379a0000000000000000000000000000000000000000000000000000000008152600401612bdb90613dac565b60405180910390fd5b60016002811115612c1e577f4e487b7100000000000000000000000000000000000000000000000000000000600052602160045260246000fd5b8160080160009054906101000a900460ff166002811115612c68577f4e487b7100000000000000000000000000000000000000000000000000000000600052602160045260246000fd5b14612ca8576040517f08c379a0000000000000000000000000000000000000000000000000000000008152600401612c9f90613e0c565b60405180910390fd5b60028160080160006101000a81548160ff02191690836002811115612cf6577f4e487b7100000000000000000000000000000000000000000000000000000000600052602160045260246000fd5b02179055507f551f0673976650a1f260d5387f7614f0386a1f815f15e6e4e8bbc077e8be645d83604051612d2a9190613aaa565b60405180910390a1505050565b612d3f612e62565b6040518060c001604052808881526020018781526020018681526020018581526020018481526020018381525090509695505050505050565b508054612d84906140ce565b6000825580601f10612d965750612db5565b601f016020900490600052602060002090810190612db49190612e98565b5b50565b828054612dc4906140ce565b90600052602060002090601f016020900481019282612de65760008555612e2d565b82601f10612dff57805160ff1916838001178555612e2d565b82800160010185558215612e2d579182015b82811115612e2c578251825591602001919060010190612e11565b5b509050612e3a9190612e98565b5090565b5080546000825560030290600052602060002090810190612e5f9190612eb5565b50565b6040518060c001604052806000815260200160008152602001600081526020016000815260200160008152602001600081525090565b5b80821115612eb1576000816000905550600101612e99565b5090565b5b80821115612f0757600080820160006101000a81549073ffffffffffffffffffffffffffffffffffffffff02191690556001820160009055600282016000612efe9190612d78565b50600301612eb6565b5090565b6000612f1e612f1984613f59565b613f28565b905082815260208101848484011115612f3657600080fd5b612f4184828561408c565b509392505050565b600081359050612f58816141e1565b92915050565b600081359050612f6d816141f8565b92915050565b600081359050612f828161420f565b92915050565b600082601f830112612f9957600080fd5b8135612fa9848260208601612f0b565b91505092915050565b600081359050612fc181614226565b92915050565b600060208284031215612fd957600080fd5b6000612fe784828501612f49565b91505092915050565b60008060006060848603121561300557600080fd5b600061301386828701612f5e565b935050602061302486828701612f73565b925050604084013567ffffffffffffffff81111561304157600080fd5b61304d86828701612f88565b9150509250925092565b60006020828403121561306957600080fd5b600061307784828501612f73565b91505092915050565b6000806040838503121561309357600080fd5b60006130a185828601612f73565b92505060206130b285828601612f49565b9150509250929050565b600080604083850312156130cf57600080fd5b60006130dd85828601612f73565b92505060206130ee85828601612f5e565b9150509250929050565b60008060006060848603121561310d57600080fd5b600061311b86828701612f73565b935050602061312c86828701612f5e565b925050604061313d86828701612f49565b9150509250925092565b600080600080600080600080610100898b03121561316457600080fd5b60006131728b828c01612f73565b985050602089013567ffffffffffffffff81111561318f57600080fd5b61319b8b828c01612f88565b97505060406131ac8b828c01612fb2565b96505060606131bd8b828c01612fb2565b95505060806131ce8b828c01612fb2565b94505060a06131df8b828c01612fb2565b93505060c06131f08b828c01612fb2565b92505060e06132018b828c01612fb2565b9150509295985092959890939650565b60008060006060848603121561322657600080fd5b600061323486828701612f73565b935050602061324586828701612fb2565b925050604061325686828701612f49565b9150509250925092565b60008060006060848603121561327557600080fd5b600061328386828701612f73565b935050602061329486828701612fb2565b925050604084013567ffffffffffffffff8111156132b157600080fd5b6132bd86828701612f88565b9150509250925092565b6000806000606084860312156132dc57600080fd5b60006132ea86828701612f73565b93505060206132fb86828701612fb2565b925050604061330c86828701612fb2565b9150509250925092565b60006020828403121561332857600080fd5b600082013567ffffffffffffffff81111561334257600080fd5b61334e84828501612f88565b91505092915050565b61336081614015565b82525050565b61336f81614027565b82525050565b61337e81614033565b82525050565b61338d8161407a565b82525050565b600061339e82613f89565b6133a88185613f9f565b93506133b881856020860161409b565b6133c1816141bc565b840191505092915050565b60006133d782613f89565b6133e18185613fb0565b93506133f181856020860161409b565b80840191505092915050565b600061340a601e83613f9f565b91507f536572766963653a2063616c6c6572206973206e6f742063726561746f7200006000830152602082019050919050565b600061344a601b83613f9f565b91507f536572766963653a2063616c6c6572206e6f742063726561746f7200000000006000830152602082019050919050565b600061348a601583613f9f565b91507f456e64706f696e743a206e6f74207965742073657400000000000000000000006000830152602082019050919050565b60006134ca600f83613f9f565b91507f5472616e73666572206661696c656400000000000000000000000000000000006000830152602082019050919050565b600061350a601f83613f9f565b91507f536572766963653a2063616c6c6572206973206e6f742070726f7669646572006000830152602082019050919050565b600061354a601883613f9f565b91507f4f70657261746f723a206e6f74207265676973746572656400000000000000006000830152602082019050919050565b600061358a602183613f9f565b91507f4269643a207072696365206d7573742062652067726561746572207468616e2060008301527f30000000000000000000000000000000000000000000000000000000000000006020830152604082019050919050565b60006135f0601983613f9f565b91507f536572766963653a20616c7265616479206465706c6f796564000000000000006000830152602082019050919050565b6000613630601a83613f9f565b91507f4f6e6c792070726f76696465722063616e2077697468647261770000000000006000830152602082019050919050565b6000613670601483613f9f565b91507f4e6f2066756e647320746f2077697468647261770000000000000000000000006000830152602082019050919050565b60006136b0601183613f9f565b91507f4e616d65206973206e6f742076616c69640000000000000000000000000000006000830152602082019050919050565b60006136f0601783613f9f565b91507f536572766963653a20646f6573206e6f742065786973740000000000000000006000830152602082019050919050565b6000613730601c83613f9f565b91507f4f70657261746f723a20616c72656164792072656769737465726564000000006000830152602082019050919050565b6000613770601483613f9f565b91507f496e73756666696369656e74207061796d656e740000000000000000000000006000830152602082019050919050565b60006137b0601583613f9f565b91507f536572766963653a206e6f742070726f766964657200000000000000000000006000830152602082019050919050565b60006137f0601183613f9f565b91507f536572766963653a206e6f74206f70656e0000000000000000000000000000006000830152602082019050919050565b6000613830600c83613f9f565b91507f4269643a206e6f206269647300000000000000000000000000000000000000006000830152602082019050919050565b6000613870601383613f9f565b91507f536572766963653a206e6f7420636c6f736564000000000000000000000000006000830152602082019050919050565b60006138b0600083613f94565b9150600082019050919050565b60006138ca601583613f9f565b91507f536572766963653a206e6f74206465706c6f79656400000000000000000000006000830152602082019050919050565b600061390a601483613f9f565b91507f536572766963653a206e6f742063726561746f720000000000000000000000006000830152602082019050919050565b600061394a601a83613f9f565b91507f536572766963653a20494420616c7265616479206578697374730000000000006000830152602082019050919050565b600061398a601783613f9f565b91507f4269643a20696e646578206f7574206f662072616e67650000000000000000006000830152602082019050919050565b6139c681614070565b82525050565b60006139d882846133cc565b915081905092915050565b60006139ee826138a3565b9150819050919050565b6000602082019050613a0d6000830184613357565b92915050565b6000604082019050613a286000830185613357565b8181036020830152613a3a8184613393565b90509392505050565b6000608082019050613a586000830187613357565b613a6560208301866139bd565b613a7260408301856139bd565b8181036060830152613a848184613393565b905095945050505050565b6000602082019050613aa46000830184613366565b92915050565b6000602082019050613abf6000830184613375565b92915050565b6000604082019050613ada6000830185613375565b8181036020830152613aec8184613393565b90509392505050565b6000606082019050613b0a6000830186613375565b8181036020830152613b1c8185613393565b90508181036040830152613b308184613393565b9050949350505050565b6000604082019050613b4f6000830185613375565b613b5c60208301846139bd565b9392505050565b6000602082019050613b786000830184613384565b92915050565b60006020820190508181036000830152613b988184613393565b905092915050565b60006080820190508181036000830152613bba8187613393565b9050613bc96020830186613357565b613bd660408301856139bd565b613be36060830184613366565b95945050505050565b60006020820190508181036000830152613c05816133fd565b9050919050565b60006020820190508181036000830152613c258161343d565b9050919050565b60006020820190508181036000830152613c458161347d565b9050919050565b60006020820190508181036000830152613c65816134bd565b9050919050565b60006020820190508181036000830152613c85816134fd565b9050919050565b60006020820190508181036000830152613ca58161353d565b9050919050565b60006020820190508181036000830152613cc58161357d565b9050919050565b60006020820190508181036000830152613ce5816135e3565b9050919050565b60006020820190508181036000830152613d0581613623565b9050919050565b60006020820190508181036000830152613d2581613663565b9050919050565b60006020820190508181036000830152613d45816136a3565b9050919050565b60006020820190508181036000830152613d65816136e3565b9050919050565b60006020820190508181036000830152613d8581613723565b9050919050565b60006020820190508181036000830152613da581613763565b9050919050565b60006020820190508181036000830152613dc5816137a3565b9050919050565b60006020820190508181036000830152613de5816137e3565b9050919050565b60006020820190508181036000830152613e0581613823565b9050919050565b60006020820190508181036000830152613e2581613863565b9050919050565b60006020820190508181036000830152613e45816138bd565b9050919050565b60006020820190508181036000830152613e65816138fd565b9050919050565b60006020820190508181036000830152613e858161393d565b9050919050565b60006020820190508181036000830152613ea58161397d565b9050919050565b6000602082019050613ec160008301846139bd565b92915050565b600060c082019050613edc60008301896139bd565b613ee960208301886139bd565b613ef660408301876139bd565b613f0360608301866139bd565b613f1060808301856139bd565b613f1d60a08301846139bd565b979650505050505050565b6000604051905081810181811067ffffffffffffffff82111715613f4f57613f4e61418d565b5b8060405250919050565b600067ffffffffffffffff821115613f7457613f7361418d565b5b601f19601f8301169050602081019050919050565b600081519050919050565b600081905092915050565b600082825260208201905092915050565b600081905092915050565b6000613fc682614070565b9150613fd183614070565b9250817fffffffffffffffffffffffffffffffffffffffffffffffffffffffffffffffff048311821515161561400a57614009614100565b5b828202905092915050565b600061402082614050565b9050919050565b60008115159050919050565b6000819050919050565b600081905061404b826141cd565b919050565b600073ffffffffffffffffffffffffffffffffffffffff82169050919050565b6000819050919050565b60006140858261403d565b9050919050565b82818337600083830152505050565b60005b838110156140b957808201518184015260208101905061409e565b838111156140c8576000848401525b50505050565b600060028204905060018216806140e657607f821691505b602082108114156140fa576140f961415e565b5b50919050565b7f4e487b7100000000000000000000000000000000000000000000000000000000600052601160045260246000fd5b7f4e487b7100000000000000000000000000000000000000000000000000000000600052602160045260246000fd5b7f4e487b7100000000000000000000000000000000000000000000000000000000600052602260045260246000fd5b7f4e487b7100000000000000000000000000000000000000000000000000000000600052604160045260246000fd5b6000601f19601f8301169050919050565b600381106141de576141dd61412f565b5b50565b6141ea81614015565b81146141f557600080fd5b50565b61420181614027565b811461420c57600080fd5b50565b61421881614033565b811461422357600080fd5b50565b61422f81614070565b811461423a57600080fd5b5056fea2646970667358221220e3ebcb7136acb0b4acb147ce576193108a34b864bf9cc5f97c8d51b128a496e664736f6c63430008000033",
  "immutableReferences": {},
  "source": "// SPDX-License-Identifier: MIT\npragma solidity ^0.8.0;\n\n\n// Define the smart contract\ncontract Federation {\n\n    // Possible states of a service\n    enum ServiceState {Open, Closed, Deployed}\n\n    // Structs\n    struct Operator {\n        string name;\n        address payable operatorAddress;\n        uint256 registrationTime;\n        bool registered;\n    }\n\n    struct Endpoint {\n        string deploymentManifestIpfsCid; \n    }\n\n    struct ServiceRequirements {\n        uint256 availability; // In percentage * 100 (e.g., 9990 = 99.90%)\n        uint256 maxLatencyMs;\n        uint256 maxJitterMs;\n        uint256 minBandwidthMbps;      \n        uint256 resourceCpuMillicores;\n        uint256 resourceRamMB;\n    }\n\n    struct Service {\n        bytes32 serviceId; // Example \"service123\" -> 0x7365727669636531323300000000000000000000000000000000000000000000\n        string description; \n        ServiceRequirements requirements;\n        ServiceState state;\n        address payable creator;\n        address payable provider;\n        bytes32 endpointConsumer; \n        bytes32 endpointProvider; \n    }\n\n    struct Bid {\n        address payable bidAddress;\n        uint256 priceWeiPerHour; // Cost in wei per hour of service\n        string location;\n    }\n    \n    // Mappings\n    mapping(bytes32 => uint) private bidCount;\n    mapping(bytes32 => Bid[]) private bids;\n    mapping(bytes32 => Service) private service;\n    mapping(address => Operator) private operator;\n    mapping(bytes32 => Endpoint) private endpoints;\n    mapping(bytes32 => uint256) private lockedPayments;\n    mapping(bytes32 => uint256) private expectedServiceUtilizationHours;\n\n    // Events\n    event OperatorRegistered(address operator, string name);\n    event OperatorRemoved(address operator);\n    event ServiceAnnouncement(bytes32 serviceId, string description);\n    event NewBid(bytes32 serviceId, uint256 biderIndex);\n    event ServiceAnnouncementClosed(bytes32 serviceId);\n    event ConsumerEndpointUpdated(bytes32 serviceId);\n    event ProviderEndpointUpdated(bytes32 serviceId);    \n    event ServiceDeployed(bytes32 serviceId);\n    event ServiceCancelled(bytes32 serviceId);\n\n    // Modifiers\n    modifier onlyRegistered() {\n        require(operator[msg.sender].registered, \"Operator: not registered\");\n        _;\n    }\n\n    modifier serviceExists(bytes32 serviceId) {\n        require(service[serviceId].serviceId == serviceId, \"Service: does not exist\");\n        _;\n    }\n\n    modifier onlyServiceCreator(bytes32 serviceId) {\n        require(service[serviceId].creator == msg.sender, \"Service: caller is not creator\");\n        _;\n    }\n\n    function addOperator(string memory name) public {\n        require(bytes(name).length > 0, \"Name is not valid\");\n        require(!operator[msg.sender].registered, \"Operator: already registered\");\n        \n        operator[msg.sender] = Operator({\n                name: name,\n                operatorAddress: payable(msg.sender),\n                registrationTime: block.timestamp,\n                registered: true\n        });\n        emit OperatorRegistered(msg.sender, name);\n    }\n\n    function removeOperator() public onlyRegistered {\n        delete operator[msg.sender];\n        emit OperatorRemoved(msg.sender);\n    }\n\n    function getOperatorInfo(address callAddress) public view returns (\n        string memory name,\n        address opAddress,\n        uint256 registrationTime,\n        bool registered\n    ) {\n        Operator storage op = operator[callAddress];\n        require(op.registered == true, \"Operator: not registered\");\n        return (op.name, op.operatorAddress, op.registrationTime, op.registered);\n    }\n\n\n    function createServiceRequirements(\n        uint256 availability,\n        uint256 maxLatencyMs,\n        uint256 maxJitterMs,\n        uint256 minBandwidthMbps,\n        uint256 resourceCpuMillicores,\n        uint256 resourceRamMB\n    ) internal pure returns (ServiceRequirements memory) {\n        return ServiceRequirements({\n            availability: availability,\n            maxLatencyMs: maxLatencyMs,\n            maxJitterMs: maxJitterMs,\n            minBandwidthMbps: minBandwidthMbps,\n            resourceCpuMillicores: resourceCpuMillicores,\n            resourceRamMB: resourceRamMB\n        });\n    }\n\n    function announceService(\n        bytes32 serviceId,\n        string memory description,\n        uint256 availability,\n        uint256 maxLatencyMs,\n        uint256 maxJitterMs,\n        uint256 minBandwidthMbps,\n        uint256 resourceCpuMillicores,\n        uint256 resourceRamMB\n    ) public onlyRegistered {\n        require(service[serviceId].serviceId != serviceId, \"Service: ID already exists\");\n\n        ServiceRequirements memory reqs = createServiceRequirements(\n            availability,\n            maxLatencyMs,\n            maxJitterMs,\n            minBandwidthMbps,\n            resourceCpuMillicores,\n            resourceRamMB\n        );\n\n        Service storage newService = service[serviceId];\n\n        newService.serviceId = serviceId;\n        newService.description = description;\n        newService.state = ServiceState.Open;\n        newService.creator = payable(msg.sender);\n        newService.provider = payable(msg.sender);\n        newService.requirements = reqs;\n\n        emit ServiceAnnouncement(serviceId, description);\n    }\n\n    function updateEndpoint(\n        bool isProvider, \n        bytes32 serviceId,\n        string memory deploymentManifestIpfsCid\n    ) public onlyRegistered serviceExists(serviceId) {\n        Service storage currentService = service[serviceId];\n       \n        bytes32 endpointKeccak = keccak256(abi.encodePacked(deploymentManifestIpfsCid));\n        endpoints[endpointKeccak] = Endpoint(deploymentManifestIpfsCid);\n\n        if(isProvider) {\n            require(currentService.state >= ServiceState.Closed, \"Service: not closed\");\n            require(currentService.provider == msg.sender, \"Service: caller is not provider\");\n            currentService.endpointProvider = endpointKeccak;\n            emit ProviderEndpointUpdated(serviceId);\n        }\n        else {\n            require(currentService.creator == msg.sender, \"Service: caller is not creator\");\n            currentService.endpointConsumer = endpointKeccak;\n            emit ConsumerEndpointUpdated(serviceId);\n        }\n    }\n        \n    function getServiceState(bytes32 serviceId) public view returns (ServiceState) {\n        return service[serviceId].state;\n    }\n\n    function getServiceRequirements(bytes32 serviceId) public view serviceExists(serviceId) returns (\n        uint256 availability,\n        uint256 maxLatencyMs,\n        uint256 maxJitterMs,\n        uint256 minBandwidthMbps,\n        uint256 resourceCpuMillicores,\n        uint256 resourceRamMB\n    ) {\n        ServiceRequirements memory reqs = service[serviceId].requirements;\n        return (\n            reqs.availability,\n            reqs.maxLatencyMs,\n            reqs.maxJitterMs,\n            reqs.minBandwidthMbps,\n            reqs.resourceCpuMillicores,\n            reqs.resourceRamMB\n        );\n    }\n\n    function getServiceInfo(\n        bytes32 serviceId, \n        bool isProvider, \n        address callAddress\n    ) public view returns (bytes32, string memory, string memory) {\n        Service storage currentService = service[serviceId];\n        require(operator[callAddress].registered, \"Operator: not registered\");\n        require(currentService.state >= ServiceState.Closed, \"Service: not closed\");\n\n        Endpoint storage ep = isProvider\n            ? endpoints[currentService.endpointConsumer]\n            : endpoints[currentService.endpointProvider];\n        \n        require(bytes(ep.deploymentManifestIpfsCid).length > 0, \"Endpoint: not yet set\");\n\n        if(isProvider) {\n            require(currentService.provider == callAddress, \"Service: not provider\");\n        } else {\n            require(currentService.creator == callAddress, \"Service: not creator\");\n        }\n\n        return (currentService.serviceId, currentService.description, ep.deploymentManifestIpfsCid);\n\n    }\n\n    function getServiceEndpoint(bytes32 endpointId, address callAddress) public view returns (string memory) {\n        require(operator[callAddress].registered, \"Operator: not registered\");\n\n        Endpoint storage ep = endpoints[endpointId];\n        return (ep.deploymentManifestIpfsCid);\n    }\n\n    function placeBid(\n        bytes32 serviceId, \n        uint256 priceWeiPerHour,\n        string memory location\n    ) public onlyRegistered serviceExists(serviceId) {\n        Service storage currentService = service[serviceId];\n        require(currentService.state == ServiceState.Open, \"Service: not open\");\n        require(priceWeiPerHour > 0, \"Bid: price must be greater than 0\");\n\n        // require(msg.sender != currentService.creator, \"Bid: cannot bid on own service\");\n\n        bids[serviceId].push(Bid(payable(msg.sender), priceWeiPerHour, location));\n        uint256 index = bids[serviceId].length;\n        bidCount[serviceId] = index;\n\n        emit NewBid(serviceId, index);\n    }\n\n    function getBidCount(bytes32 serviceId, address callAddress) public view serviceExists(serviceId) returns (uint256) {\n        require(service[serviceId].creator == callAddress, \"Service: caller not creator\");\n        return bidCount[serviceId];\n    }\n\n    function getBidInfo(bytes32 serviceId, uint256 index, address callAddress) public view serviceExists(serviceId) returns (address, uint256, uint256, string memory) {\n        require(service[serviceId].creator == callAddress, \"Service: caller not creator\");\n        Bid[] storage bidPool = bids[serviceId];\n        require(bidPool.length > 0, \"Bid: no bids\");\n        require(index < bidPool.length, \"Bid: index out of range\");\n\n        Bid storage b = bidPool[index];\n        return (b.bidAddress, b.priceWeiPerHour, index, b.location);\n    }\n\n    function chooseProvider(bytes32 serviceId, uint256 biderIndex, uint256 expectedHours) payable public serviceExists(serviceId) onlyServiceCreator(serviceId) {\n        Service storage currentService = service[serviceId];\n        require(currentService.state == ServiceState.Open, \"Service: not open\");\n        require(biderIndex < bids[serviceId].length, \"Bid: index out of range\");\n    \n        Bid storage winningBid = bids[serviceId][biderIndex];\n        uint256 requiredAmount = winningBid.priceWeiPerHour * expectedHours;\n        require(msg.value >= requiredAmount, \"Insufficient payment\");\n\n        currentService.state = ServiceState.Closed;\n        currentService.provider = bids[serviceId][biderIndex].bidAddress;\n        lockedPayments[serviceId] = msg.value;\n        expectedServiceUtilizationHours[serviceId] = expectedHours;\n\n        emit ServiceAnnouncementClosed(serviceId);\n    }\n\n\n    function withdrawPayment(bytes32 serviceId) public serviceExists(serviceId) {\n        Service storage currentService = service[serviceId];\n        require(currentService.state == ServiceState.Deployed, \"Service: not deployed\");\n        require(currentService.provider == msg.sender, \"Only provider can withdraw\");\n\n        uint256 amount = lockedPayments[serviceId];\n        require(amount > 0, \"No funds to withdraw\");\n\n        lockedPayments[serviceId] = 0;\n        (bool sent, ) = msg.sender.call{value: amount}(\"\");\n        require(sent, \"Transfer failed\");\n    }\n\n\n    function isWinner(bytes32 serviceId, address callAddress) public view serviceExists(serviceId) returns (bool) {\n        Service storage currentService = service[serviceId];\n        require(currentService.state == ServiceState.Closed, \"Service: not closed\");\n        \n        return currentService.provider == callAddress;\n    }\n\n    function serviceDeployed(bytes32 serviceId) public serviceExists(serviceId) {\n        Service storage currentService = service[serviceId];\n        require(currentService.provider == msg.sender, \"Service: not provider\");\n        require(currentService.state == ServiceState.Closed, \"Service: not closed\");\n        \n        currentService.state = ServiceState.Deployed;\n        \n        emit ServiceDeployed(serviceId);\n    }\n\n    function cancelService(bytes32 serviceId) public serviceExists(serviceId) onlyServiceCreator(serviceId) {\n        Service storage currentService = service[serviceId];\n        require(currentService.state != ServiceState.Deployed, \"Service: already deployed\");\n\n        delete service[serviceId];\n        delete bids[serviceId];\n        delete bidCount[serviceId];\n\n        emit ServiceCancelled(serviceId);\n    }\n\n    // Returns true if the endpoint (consumer or provider) has been set for this service.\n    function isEndpointSet(bytes32 serviceId, bool checkProvider)\n        public\n        view\n        serviceExists(serviceId)\n        returns (bool)\n    {\n        Service storage s = service[serviceId];\n        // pick which endpoint id to check\n        bytes32 epId = checkProvider ? s.endpointProvider : s.endpointConsumer;\n\n        if (epId == bytes32(0)) {\n            return false; // nothing stored yet\n        }\n\n        Endpoint storage ep = endpoints[epId];\n        // endpoint considered \"set\" only if a non-empty CID is stored\n        return bytes(ep.deploymentManifestIpfsCid).length > 0;\n    }\n}\n\n\n",
  "sourcePath": "/smart-contracts/contracts/Federation.sol",
  "compiler": {
    "name": "solc",
    "version": "0.8.0+commit.c7dfd78e.Emscripten.clang"
  },
  "schemaVersion": "3.4.16",
  "updatedAt": "2025-10-27T15:26:35.388Z",
  "networkType": "ethereum",
  "devdoc": {
    "kind": "dev",
    "methods": {},
    "version": 1
  },
  "userdoc": {
    "kind": "user",
    "methods": {},
    "version": 1
  }
}