{
  "contractName": "Federation",
  "abi": [
    {
      "anonymous": false,
      "inputs": [
        {
          "indexed": false,
          "internalType": "bytes32",
          "name": "serviceId",
          "type": "bytes32"
        }
      ],
      "name": "ConsumerEndpointUpdated",
      "type": "event"
    },
    {
      "anonymous": false,
      "inputs": [
        {
          "indexed": false,
          "internalType": "bytes32",
          "name": "serviceId",
          "type": "bytes32"
        },
        {
          "indexed": false,
          "internalType": "uint256",
          "name": "biderIndex",
          "type": "uint256"
        }
      ],
      "name": "NewBid",
      "type": "event"
    },
    {
      "anonymous": false,
      "inputs": [
        {
          "indexed": false,
          "internalType": "address",
          "name": "operator",
          "type": "address"
        },
        {
          "indexed": false,
          "internalType": "string",
          "name": "name",
          "type": "string"
        }
      ],
      "name": "OperatorRegistered",
      "type": "event"
    },
    {
      "anonymous": false,
      "inputs": [
        {
          "indexed": false,
          "internalType": "address",
          "name": "operator",
          "type": "address"
        }
      ],
      "name": "OperatorRemoved",
      "type": "event"
    },
    {
      "anonymous": false,
      "inputs": [
        {
          "indexed": false,
          "internalType": "bytes32",
          "name": "serviceId",
          "type": "bytes32"
        }
      ],
      "name": "ProviderEndpointUpdated",
      "type": "event"
    },
    {
      "anonymous": false,
      "inputs": [
        {
          "indexed": false,
          "internalType": "bytes32",
          "name": "serviceId",
          "type": "bytes32"
        },
        {
          "indexed": false,
          "internalType": "string",
          "name": "description",
          "type": "string"
        }
      ],
      "name": "ServiceAnnouncement",
      "type": "event"
    },
    {
      "anonymous": false,
      "inputs": [
        {
          "indexed": false,
          "internalType": "bytes32",
          "name": "serviceId",
          "type": "bytes32"
        }
      ],
      "name": "ServiceAnnouncementClosed",
      "type": "event"
    },
    {
      "anonymous": false,
      "inputs": [
        {
          "indexed": false,
          "internalType": "bytes32",
          "name": "serviceId",
          "type": "bytes32"
        }
      ],
      "name": "ServiceCancelled",
      "type": "event"
    },
    {
      "anonymous": false,
      "inputs": [
        {
          "indexed": false,
          "internalType": "bytes32",
          "name": "serviceId",
          "type": "bytes32"
        }
      ],
      "name": "ServiceDeployed",
      "type": "event"
    },
    {
      "inputs": [
        {
          "internalType": "string",
          "name": "name",
          "type": "string"
        }
      ],
      "name": "addOperator",
      "outputs": [],
      "stateMutability": "nonpayable",
      "type": "function"
    },
    {
      "inputs": [],
      "name": "removeOperator",
      "outputs": [],
      "stateMutability": "nonpayable",
      "type": "function"
    },
    {
      "inputs": [
        {
          "internalType": "address",
          "name": "callAddress",
          "type": "address"
        }
      ],
      "name": "getOperatorInfo",
      "outputs": [
        {
          "internalType": "string",
          "name": "name",
          "type": "string"
        },
        {
          "internalType": "address",
          "name": "opAddress",
          "type": "address"
        },
        {
          "internalType": "uint256",
          "name": "registrationTime",
          "type": "uint256"
        },
        {
          "internalType": "bool",
          "name": "registered",
          "type": "bool"
        }
      ],
      "stateMutability": "view",
      "type": "function",
      "constant": true
    },
    {
      "inputs": [
        {
          "internalType": "bytes32",
          "name": "serviceId",
          "type": "bytes32"
        },
        {
          "internalType": "string",
          "name": "description",
          "type": "string"
        },
        {
          "internalType": "uint256",
          "name": "availability",
          "type": "uint256"
        },
        {
          "internalType": "uint256",
          "name": "maxLatencyMs",
          "type": "uint256"
        },
        {
          "internalType": "uint256",
          "name": "maxJitterMs",
          "type": "uint256"
        },
        {
          "internalType": "uint256",
          "name": "minBandwidthMbps",
          "type": "uint256"
        },
        {
          "internalType": "uint256",
          "name": "resourceCpuMillicores",
          "type": "uint256"
        },
        {
          "internalType": "uint256",
          "name": "resourceRamMB",
          "type": "uint256"
        }
      ],
      "name": "announceService",
      "outputs": [],
      "stateMutability": "nonpayable",
      "type": "function"
    },
    {
      "inputs": [
        {
          "internalType": "bool",
          "name": "isProvider",
          "type": "bool"
        },
        {
          "internalType": "bytes32",
          "name": "serviceId",
          "type": "bytes32"
        },
        {
          "internalType": "string",
          "name": "deploymentManifestIpfsCid",
          "type": "string"
        }
      ],
      "name": "updateEndpoint",
      "outputs": [],
      "stateMutability": "nonpayable",
      "type": "function"
    },
    {
      "inputs": [
        {
          "internalType": "bytes32",
          "name": "serviceId",
          "type": "bytes32"
        }
      ],
      "name": "getServiceState",
      "outputs": [
        {
          "internalType": "enum Federation.ServiceState",
          "name": "",
          "type": "uint8"
        }
      ],
      "stateMutability": "view",
      "type": "function",
      "constant": true
    },
    {
      "inputs": [
        {
          "internalType": "bytes32",
          "name": "serviceId",
          "type": "bytes32"
        }
      ],
      "name": "getServiceRequirements",
      "outputs": [
        {
          "internalType": "uint256",
          "name": "availability",
          "type": "uint256"
        },
        {
          "internalType": "uint256",
          "name": "maxLatencyMs",
          "type": "uint256"
        },
        {
          "internalType": "uint256",
          "name": "maxJitterMs",
          "type": "uint256"
        },
        {
          "internalType": "uint256",
          "name": "minBandwidthMbps",
          "type": "uint256"
        },
        {
          "internalType": "uint256",
          "name": "resourceCpuMillicores",
          "type": "uint256"
        },
        {
          "internalType": "uint256",
          "name": "resourceRamMB",
          "type": "uint256"
        }
      ],
      "stateMutability": "view",
      "type": "function",
      "constant": true
    },
    {
      "inputs": [
        {
          "internalType": "bytes32",
          "name": "serviceId",
          "type": "bytes32"
        },
        {
          "internalType": "bool",
          "name": "isProvider",
          "type": "bool"
        },
        {
          "internalType": "address",
          "name": "callAddress",
          "type": "address"
        }
      ],
      "name": "getServiceInfo",
      "outputs": [
        {
          "internalType": "bytes32",
          "name": "",
          "type": "bytes32"
        },
        {
          "internalType": "string",
          "name": "",
          "type": "string"
        },
        {
          "internalType": "string",
          "name": "",
          "type": "string"
        }
      ],
      "stateMutability": "view",
      "type": "function",
      "constant": true
    },
    {
      "inputs": [
        {
          "internalType": "bytes32",
          "name": "endpointId",
          "type": "bytes32"
        },
        {
          "internalType": "address",
          "name": "callAddress",
          "type": "address"
        }
      ],
      "name": "getServiceEndpoint",
      "outputs": [
        {
          "internalType": "string",
          "name": "",
          "type": "string"
        }
      ],
      "stateMutability": "view",
      "type": "function",
      "constant": true
    },
    {
      "inputs": [
        {
          "internalType": "bytes32",
          "name": "serviceId",
          "type": "bytes32"
        },
        {
          "internalType": "uint256",
          "name": "priceWeiPerHour",
          "type": "uint256"
        },
        {
          "internalType": "string",
          "name": "location",
          "type": "string"
        }
      ],
      "name": "placeBid",
      "outputs": [],
      "stateMutability": "nonpayable",
      "type": "function"
    },
    {
      "inputs": [
        {
          "internalType": "bytes32",
          "name": "serviceId",
          "type": "bytes32"
        },
        {
          "internalType": "address",
          "name": "callAddress",
          "type": "address"
        }
      ],
      "name": "getBidCount",
      "outputs": [
        {
          "internalType": "uint256",
          "name": "",
          "type": "uint256"
        }
      ],
      "stateMutability": "view",
      "type": "function",
      "constant": true
    },
    {
      "inputs": [
        {
          "internalType": "bytes32",
          "name": "serviceId",
          "type": "bytes32"
        },
        {
          "internalType": "uint256",
          "name": "index",
          "type": "uint256"
        },
        {
          "internalType": "address",
          "name": "callAddress",
          "type": "address"
        }
      ],
      "name": "getBidInfo",
      "outputs": [
        {
          "internalType": "address",
          "name": "",
          "type": "address"
        },
        {
          "internalType": "uint256",
          "name": "",
          "type": "uint256"
        },
        {
          "internalType": "uint256",
          "name": "",
          "type": "uint256"
        },
        {
          "internalType": "string",
          "name": "",
          "type": "string"
        }
      ],
      "stateMutability": "view",
      "type": "function",
      "constant": true
    },
    {
      "inputs": [
        {
          "internalType": "bytes32",
          "name": "serviceId",
          "type": "bytes32"
        },
        {
          "internalType": "uint256",
          "name": "biderIndex",
          "type": "uint256"
        },
        {
          "internalType": "uint256",
          "name": "expectedHours",
          "type": "uint256"
        }
      ],
      "name": "chooseProvider",
      "outputs": [],
      "stateMutability": "payable",
      "type": "function",
      "payable": true
    },
    {
      "inputs": [
        {
          "internalType": "bytes32",
          "name": "serviceId",
          "type": "bytes32"
        }
      ],
      "name": "withdrawPayment",
      "outputs": [],
      "stateMutability": "nonpayable",
      "type": "function"
    },
    {
      "inputs": [
        {
          "internalType": "bytes32",
          "name": "serviceId",
          "type": "bytes32"
        },
        {
          "internalType": "address",
          "name": "callAddress",
          "type": "address"
        }
      ],
      "name": "isWinner",
      "outputs": [
        {
          "internalType": "bool",
          "name": "",
          "type": "bool"
        }
      ],
      "stateMutability": "view",
      "type": "function",
      "constant": true
    },
    {
      "inputs": [
        {
          "internalType": "bytes32",
          "name": "serviceId",
          "type": "bytes32"
        }
      ],
      "name": "serviceDeployed",
      "outputs": [],
      "stateMutability": "nonpayable",
      "type": "function"
    },
    {
      "inputs": [
        {
          "internalType": "bytes32",
          "name": "serviceId",
          "type": "bytes32"
        }
      ],
      "name": "cancelService",
      "outputs": [],
      "stateMutability": "nonpayable",
      "type": "function"
    }
  ],
  "bytecode": "0x608060405234801561001057600080fd5b50614116806100206000396000f3fe6080604052600436106100fe5760003560e01c80637aaf7a5011610095578063b46e884311610064578063b46e88431461033c578063b6a92f1114610379578063c5449463146103a2578063d96a2853146103e4578063f1bd089014610421576100fe565b80637aaf7a501461026e5780637d6b2b49146102975780639cc19f5b146102c0578063a22aeacf146102fd576100fe565b80633d935eaa116100d15780633d935eaa146101b657806344620456146101df5780635ce56833146102085780637886a0f414610231576100fe565b806320e545481461010357806327d9ab5d1461011a5780632fd9e8be1461015a5780633ca1a41c14610176575b600080fd5b34801561010f57600080fd5b5061011861044a565b005b34801561012657600080fd5b50610141600480360381019061013c9190612ea6565b6105a7565b6040516101519493929190613a43565b60405180910390f35b610174600480360381019061016f919061316a565b610724565b005b34801561018257600080fd5b5061019d600480360381019061019891906130b4565b610b8c565b6040516101ad94939291906138e6565b60405180910390f35b3480156101c257600080fd5b506101dd60048036038101906101d89190612f36565b610e4e565b005b3480156101eb57600080fd5b5061020660048036038101906102019190613103565b61113a565b005b34801561021457600080fd5b5061022f600480360381019061022a91906131b9565b611490565b005b34801561023d57600080fd5b5061025860048036038101906102539190612f36565b6116aa565b6040516102659190613a06565b60405180910390f35b34801561027a57600080fd5b5061029560048036038101906102909190612fea565b6116d7565b005b3480156102a357600080fd5b506102be60048036038101906102b99190612f36565b61196c565b005b3480156102cc57600080fd5b506102e760048036038101906102e29190612f5f565b611c8e565b6040516102f49190613932565b60405180910390f35b34801561030957600080fd5b50610324600480360381019061031f9190612f9b565b611e21565b60405161033393929190613998565b60405180910390f35b34801561034857600080fd5b50610363600480360381019061035e9190612f5f565b612287565b6040516103709190613d4f565b60405180910390f35b34801561038557600080fd5b506103a0600480360381019061039b9190612ecf565b6123a2565b005b3480156103ae57600080fd5b506103c960048036038101906103c49190612f36565b61278b565b6040516103db96959493929190613d6a565b60405180910390f35b3480156103f057600080fd5b5061040b60048036038101906104069190612f5f565b612883565b6040516104189190613a21565b60405180910390f35b34801561042d57600080fd5b5061044860048036038101906104439190612f36565b6129c1565b005b600360003373ffffffffffffffffffffffffffffffffffffffff1673ffffffffffffffffffffffffffffffffffffffff16815260200190815260200160002060030160009054906101000a900460ff166104d9576040517f08c379a00000000000000000000000000000000000000000000000000000000081526004016104d090613b2f565b60405180910390fd5b600360003373ffffffffffffffffffffffffffffffffffffffff1673ffffffffffffffffffffffffffffffffffffffff168152602001908152602001600020600080820160006105299190612c57565b6001820160006101000a81549073ffffffffffffffffffffffffffffffffffffffff021916905560028201600090556003820160006101000a81549060ff021916905550507f80c0b871b97b595b16a7741c1b06fed0c6f6f558639f18ccbce50724325dc40d3360405161059d919061389b565b60405180910390a1565b6060600080600080600360008773ffffffffffffffffffffffffffffffffffffffff1673ffffffffffffffffffffffffffffffffffffffff1681526020019081526020016000209050600115158160030160009054906101000a900460ff16151514610648576040517f08c379a000000000000000000000000000000000000000000000000000000000815260040161063f90613b2f565b60405180910390fd5b806000018160010160009054906101000a900473ffffffffffffffffffffffffffffffffffffffff1682600201548360030160009054906101000a900460ff1683805461069490613f71565b80601f01602080910402602001604051908101604052809291908181526020018280546106c090613f71565b801561070d5780601f106106e25761010080835404028352916020019161070d565b820191906000526020600020905b8154815290600101906020018083116106f057829003601f168201915b505050505093509450945094509450509193509193565b828060026000838152602001908152602001600020600001541461077d576040517f08c379a000000000000000000000000000000000000000000000000000000000815260040161077490613bef565b60405180910390fd5b833373ffffffffffffffffffffffffffffffffffffffff166002600083815260200190815260200160002060080160019054906101000a900473ffffffffffffffffffffffffffffffffffffffff1673ffffffffffffffffffffffffffffffffffffffff1614610822576040517f08c379a000000000000000000000000000000000000000000000000000000000815260040161081990613a8f565b60405180910390fd5b600060026000878152602001908152602001600020905060006002811115610873577f4e487b7100000000000000000000000000000000000000000000000000000000600052602160045260246000fd5b8160080160009054906101000a900460ff1660028111156108bd577f4e487b7100000000000000000000000000000000000000000000000000000000600052602160045260246000fd5b146108fd576040517f08c379a00000000000000000000000000000000000000000000000000000000081526004016108f490613c6f565b60405180910390fd5b60016000878152602001908152602001600020805490508510610955576040517f08c379a000000000000000000000000000000000000000000000000000000000815260040161094c90613d2f565b60405180910390fd5b60006001600088815260200190815260200160002086815481106109a2577f4e487b7100000000000000000000000000000000000000000000000000000000600052603260045260246000fd5b9060005260206000209060030201905060008582600101546109c49190613e5e565b905080341015610a09576040517f08c379a0000000000000000000000000000000000000000000000000000000008152600401610a0090613c2f565b60405180910390fd5b60018360080160006101000a81548160ff02191690836002811115610a57577f4e487b7100000000000000000000000000000000000000000000000000000000600052602160045260246000fd5b0217905550600160008981526020019081526020016000208781548110610aa7577f4e487b7100000000000000000000000000000000000000000000000000000000600052603260045260246000fd5b906000526020600020906003020160000160009054906101000a900473ffffffffffffffffffffffffffffffffffffffff168360090160006101000a81548173ffffffffffffffffffffffffffffffffffffffff021916908373ffffffffffffffffffffffffffffffffffffffff16021790555034600560008a81526020019081526020016000208190555085600660008a8152602001908152602001600020819055507f0fa967e5a697cd5b1a32e3ed8e2a5b983caf2ae1bb54e8fe37fae071347e8fea88604051610b7a919061394d565b60405180910390a15050505050505050565b600080600060608680600260008381526020019081526020016000206000015414610bec576040517f08c379a0000000000000000000000000000000000000000000000000000000008152600401610be390613bef565b60405180910390fd5b8573ffffffffffffffffffffffffffffffffffffffff16600260008a815260200190815260200160002060080160019054906101000a900473ffffffffffffffffffffffffffffffffffffffff1673ffffffffffffffffffffffffffffffffffffffff1614610c90576040517f08c379a0000000000000000000000000000000000000000000000000000000008152600401610c8790613aaf565b60405180910390fd5b6000600160008a815260200190815260200160002090506000818054905011610cee576040517f08c379a0000000000000000000000000000000000000000000000000000000008152600401610ce590613c8f565b60405180910390fd5b80805490508810610d34576040517f08c379a0000000000000000000000000000000000000000000000000000000008152600401610d2b90613d2f565b60405180910390fd5b6000818981548110610d6f577f4e487b7100000000000000000000000000000000000000000000000000000000600052603260045260246000fd5b906000526020600020906003020190508060000160009054906101000a900473ffffffffffffffffffffffffffffffffffffffff1681600101548a83600201808054610dba90613f71565b80601f0160208091040260200160405190810160405280929190818152602001828054610de690613f71565b8015610e335780601f10610e0857610100808354040283529160200191610e33565b820191906000526020600020905b815481529060010190602001808311610e1657829003601f168201915b50505050509050965096509650965050505093509350935093565b8080600260008381526020019081526020016000206000015414610ea7576040517f08c379a0000000000000000000000000000000000000000000000000000000008152600401610e9e90613bef565b60405180910390fd5b6000600260008481526020019081526020016000209050600280811115610ef7577f4e487b7100000000000000000000000000000000000000000000000000000000600052602160045260246000fd5b8160080160009054906101000a900460ff166002811115610f41577f4e487b7100000000000000000000000000000000000000000000000000000000600052602160045260246000fd5b14610f81576040517f08c379a0000000000000000000000000000000000000000000000000000000008152600401610f7890613ccf565b60405180910390fd5b3373ffffffffffffffffffffffffffffffffffffffff168160090160009054906101000a900473ffffffffffffffffffffffffffffffffffffffff1673ffffffffffffffffffffffffffffffffffffffff1614611013576040517f08c379a000000000000000000000000000000000000000000000000000000000815260040161100a90613b8f565b60405180910390fd5b6000600560008581526020019081526020016000205490506000811161106e576040517f08c379a000000000000000000000000000000000000000000000000000000000815260040161106590613baf565b60405180910390fd5b6000600560008681526020019081526020016000208190555060003373ffffffffffffffffffffffffffffffffffffffff16826040516110ad90613886565b60006040518083038185875af1925050503d80600081146110ea576040519150601f19603f3d011682016040523d82523d6000602084013e6110ef565b606091505b5050905080611133576040517f08c379a000000000000000000000000000000000000000000000000000000000815260040161112a90613aef565b60405180910390fd5b5050505050565b600360003373ffffffffffffffffffffffffffffffffffffffff1673ffffffffffffffffffffffffffffffffffffffff16815260200190815260200160002060030160009054906101000a900460ff166111c9576040517f08c379a00000000000000000000000000000000000000000000000000000000081526004016111c090613b2f565b60405180910390fd5b8280600260008381526020019081526020016000206000015414611222576040517f08c379a000000000000000000000000000000000000000000000000000000000815260040161121990613bef565b60405180910390fd5b600060026000868152602001908152602001600020905060006002811115611273577f4e487b7100000000000000000000000000000000000000000000000000000000600052602160045260246000fd5b8160080160009054906101000a900460ff1660028111156112bd577f4e487b7100000000000000000000000000000000000000000000000000000000600052602160045260246000fd5b146112fd576040517f08c379a00000000000000000000000000000000000000000000000000000000081526004016112f490613c6f565b60405180910390fd5b60008411611340576040517f08c379a000000000000000000000000000000000000000000000000000000000815260040161133790613b4f565b60405180910390fd5b6001600086815260200190815260200160002060405180606001604052803373ffffffffffffffffffffffffffffffffffffffff16815260200186815260200185815250908060018154018082558091505060019003906000526020600020906003020160009091909190915060008201518160000160006101000a81548173ffffffffffffffffffffffffffffffffffffffff021916908373ffffffffffffffffffffffffffffffffffffffff16021790555060208201518160010155604082015181600201908051906020019061141a929190612c97565b50505060006001600087815260200190815260200160002080549050905080600080888152602001908152602001600020819055507fdb578ec7204282ed3ffcec84ef9d2ca9adda7fb0c0b707010bad5cce9f18f41f86826040516114809291906139dd565b60405180910390a1505050505050565b60008151116114d4576040517f08c379a00000000000000000000000000000000000000000000000000000000081526004016114cb90613bcf565b60405180910390fd5b600360003373ffffffffffffffffffffffffffffffffffffffff1673ffffffffffffffffffffffffffffffffffffffff16815260200190815260200160002060030160009054906101000a900460ff1615611564576040517f08c379a000000000000000000000000000000000000000000000000000000000815260040161155b90613c0f565b60405180910390fd5b60405180608001604052808281526020013373ffffffffffffffffffffffffffffffffffffffff16815260200142815260200160011515815250600360003373ffffffffffffffffffffffffffffffffffffffff1673ffffffffffffffffffffffffffffffffffffffff16815260200190815260200160002060008201518160000190805190602001906115f9929190612c97565b5060208201518160010160006101000a81548173ffffffffffffffffffffffffffffffffffffffff021916908373ffffffffffffffffffffffffffffffffffffffff1602179055506040820151816002015560608201518160030160006101000a81548160ff0219169083151502179055509050507f11a85ea4a40584362c3d9c17685709a2e02b466ac78d5eb00b6aff73d90f5805338260405161169f9291906138b6565b60405180910390a150565b60006002600083815260200190815260200160002060080160009054906101000a900460ff169050919050565b600360003373ffffffffffffffffffffffffffffffffffffffff1673ffffffffffffffffffffffffffffffffffffffff16815260200190815260200160002060030160009054906101000a900460ff16611766576040517f08c379a000000000000000000000000000000000000000000000000000000000815260040161175d90613b2f565b60405180910390fd5b87600260008a81526020019081526020016000206000015414156117bf576040517f08c379a00000000000000000000000000000000000000000000000000000000081526004016117b690613d0f565b60405180910390fd5b60006117cf878787878787612c16565b90506000600260008b8152602001908152602001600020905089816000018190555088816001019080519060200190611809929190612c97565b5060008160080160006101000a81548160ff02191690836002811115611858577f4e487b7100000000000000000000000000000000000000000000000000000000600052602160045260246000fd5b0217905550338160080160016101000a81548173ffffffffffffffffffffffffffffffffffffffff021916908373ffffffffffffffffffffffffffffffffffffffff160217905550338160090160006101000a81548173ffffffffffffffffffffffffffffffffffffffff021916908373ffffffffffffffffffffffffffffffffffffffff1602179055508181600201600082015181600001556020820151816001015560408201518160020155606082015181600301556080820151816004015560a082015181600501559050507f1f9d577c7e5f1143cf185f915e072fc815fe000d836dd55a38ac2500edb7ed868a8a604051611958929190613968565b60405180910390a150505050505050505050565b80806002600083815260200190815260200160002060000154146119c5576040517f08c379a00000000000000000000000000000000000000000000000000000000081526004016119bc90613bef565b60405180910390fd5b813373ffffffffffffffffffffffffffffffffffffffff166002600083815260200190815260200160002060080160019054906101000a900473ffffffffffffffffffffffffffffffffffffffff1673ffffffffffffffffffffffffffffffffffffffff1614611a6a576040517f08c379a0000000000000000000000000000000000000000000000000000000008152600401611a6190613a8f565b60405180910390fd5b6000600260008581526020019081526020016000209050600280811115611aba577f4e487b7100000000000000000000000000000000000000000000000000000000600052602160045260246000fd5b8160080160009054906101000a900460ff166002811115611b04577f4e487b7100000000000000000000000000000000000000000000000000000000600052602160045260246000fd5b1415611b45576040517f08c379a0000000000000000000000000000000000000000000000000000000008152600401611b3c90613b6f565b60405180910390fd5b60026000858152602001908152602001600020600080820160009055600182016000611b719190612c57565b600282016000808201600090556001820160009055600282016000905560038201600090556004820160009055600582016000905550506008820160006101000a81549060ff02191690556008820160016101000a81549073ffffffffffffffffffffffffffffffffffffffff02191690556009820160006101000a81549073ffffffffffffffffffffffffffffffffffffffff0219169055600a820160009055600b8201600090555050600160008581526020019081526020016000206000611c3b9190612d1d565b600080858152602001908152602001600020600090557f7f1af604dcd671396a44df00c2e3bb1670cd61b71cf9266715e24503307fdc8e84604051611c80919061394d565b60405180910390a150505050565b60008280600260008381526020019081526020016000206000015414611ce9576040517f08c379a0000000000000000000000000000000000000000000000000000000008152600401611ce090613bef565b60405180910390fd5b600060026000868152602001908152602001600020905060016002811115611d3a577f4e487b7100000000000000000000000000000000000000000000000000000000600052602160045260246000fd5b8160080160009054906101000a900460ff166002811115611d84577f4e487b7100000000000000000000000000000000000000000000000000000000600052602160045260246000fd5b14611dc4576040517f08c379a0000000000000000000000000000000000000000000000000000000008152600401611dbb90613caf565b60405180910390fd5b8373ffffffffffffffffffffffffffffffffffffffff168160090160009054906101000a900473ffffffffffffffffffffffffffffffffffffffff1673ffffffffffffffffffffffffffffffffffffffff16149250505092915050565b60006060806000600260008881526020019081526020016000209050600360008673ffffffffffffffffffffffffffffffffffffffff1673ffffffffffffffffffffffffffffffffffffffff16815260200190815260200160002060030160009054906101000a900460ff16611ecc576040517f08c379a0000000000000000000000000000000000000000000000000000000008152600401611ec390613b2f565b60405180910390fd5b60016002811115611f06577f4e487b7100000000000000000000000000000000000000000000000000000000600052602160045260246000fd5b8160080160009054906101000a900460ff166002811115611f50577f4e487b7100000000000000000000000000000000000000000000000000000000600052602160045260246000fd5b1015611f91576040517f08c379a0000000000000000000000000000000000000000000000000000000008152600401611f8890613caf565b60405180910390fd5b600086611fb4576004600083600b01548152602001908152602001600020611fcc565b6004600083600a015481526020019081526020016000205b90506000816000018054611fdf90613f71565b905011612021576040517f08c379a000000000000000000000000000000000000000000000000000000000815260040161201890613acf565b60405180910390fd5b86156120be578573ffffffffffffffffffffffffffffffffffffffff168260090160009054906101000a900473ffffffffffffffffffffffffffffffffffffffff1673ffffffffffffffffffffffffffffffffffffffff16146120b9576040517f08c379a00000000000000000000000000000000000000000000000000000000081526004016120b090613c4f565b60405180910390fd5b612151565b8573ffffffffffffffffffffffffffffffffffffffff168260080160019054906101000a900473ffffffffffffffffffffffffffffffffffffffff1673ffffffffffffffffffffffffffffffffffffffff1614612150576040517f08c379a000000000000000000000000000000000000000000000000000000000815260040161214790613cef565b60405180910390fd5b5b8160000154826001018260000181805461216a90613f71565b80601f016020809104026020016040519081016040528092919081815260200182805461219690613f71565b80156121e35780601f106121b8576101008083540402835291602001916121e3565b820191906000526020600020905b8154815290600101906020018083116121c657829003601f168201915b505050505091508080546121f690613f71565b80601f016020809104026020016040519081016040528092919081815260200182805461222290613f71565b801561226f5780601f106122445761010080835404028352916020019161226f565b820191906000526020600020905b81548152906001019060200180831161225257829003601f168201915b50505050509050945094509450505093509350939050565b600082806002600083815260200190815260200160002060000154146122e2576040517f08c379a00000000000000000000000000000000000000000000000000000000081526004016122d990613bef565b60405180910390fd5b8273ffffffffffffffffffffffffffffffffffffffff166002600086815260200190815260200160002060080160019054906101000a900473ffffffffffffffffffffffffffffffffffffffff1673ffffffffffffffffffffffffffffffffffffffff1614612386576040517f08c379a000000000000000000000000000000000000000000000000000000000815260040161237d90613aaf565b60405180910390fd5b6000808581526020019081526020016000205491505092915050565b600360003373ffffffffffffffffffffffffffffffffffffffff1673ffffffffffffffffffffffffffffffffffffffff16815260200190815260200160002060030160009054906101000a900460ff16612431576040517f08c379a000000000000000000000000000000000000000000000000000000000815260040161242890613b2f565b60405180910390fd5b818060026000838152602001908152602001600020600001541461248a576040517f08c379a000000000000000000000000000000000000000000000000000000000815260040161248190613bef565b60405180910390fd5b60006002600085815260200190815260200160002090506000836040516020016124b4919061386f565b60405160208183030381529060405280519060200120905060405180602001604052808581525060046000838152602001908152602001600020600082015181600001908051906020019061250a929190612c97565b5090505085156126b0576001600281111561254e577f4e487b7100000000000000000000000000000000000000000000000000000000600052602160045260246000fd5b8260080160009054906101000a900460ff166002811115612598577f4e487b7100000000000000000000000000000000000000000000000000000000600052602160045260246000fd5b10156125d9576040517f08c379a00000000000000000000000000000000000000000000000000000000081526004016125d090613caf565b60405180910390fd5b3373ffffffffffffffffffffffffffffffffffffffff168260090160009054906101000a900473ffffffffffffffffffffffffffffffffffffffff1673ffffffffffffffffffffffffffffffffffffffff161461266b576040517f08c379a000000000000000000000000000000000000000000000000000000000815260040161266290613b0f565b60405180910390fd5b8082600b01819055507f2094534322befeeedff53195b0c1352101623c8d2a3952fe46e7e9419375f63b856040516126a3919061394d565b60405180910390a1612783565b3373ffffffffffffffffffffffffffffffffffffffff168260080160019054906101000a900473ffffffffffffffffffffffffffffffffffffffff1673ffffffffffffffffffffffffffffffffffffffff1614612742576040517f08c379a000000000000000000000000000000000000000000000000000000000815260040161273990613a8f565b60405180910390fd5b8082600a01819055507f255ae3e4871c30bcf3205829288381d28ee9f27e570acae5b85e635da02543248560405161277a919061394d565b60405180910390a15b505050505050565b60008060008060008086806002600083815260200190815260200160002060000154146127ed576040517f08c379a00000000000000000000000000000000000000000000000000000000081526004016127e490613bef565b60405180910390fd5b6000600260008a81526020019081526020016000206002016040518060c001604052908160008201548152602001600182015481526020016002820154815260200160038201548152602001600482015481526020016005820154815250509050806000015181602001518260400151836060015184608001518560a00151975097509750975097509750505091939550919395565b6060600360008373ffffffffffffffffffffffffffffffffffffffff1673ffffffffffffffffffffffffffffffffffffffff16815260200190815260200160002060030160009054906101000a900460ff16612914576040517f08c379a000000000000000000000000000000000000000000000000000000000815260040161290b90613b2f565b60405180910390fd5b600060046000858152602001908152602001600020905080600001805461293a90613f71565b80601f016020809104026020016040519081016040528092919081815260200182805461296690613f71565b80156129b35780601f10612988576101008083540402835291602001916129b3565b820191906000526020600020905b81548152906001019060200180831161299657829003601f168201915b505050505091505092915050565b8080600260008381526020019081526020016000206000015414612a1a576040517f08c379a0000000000000000000000000000000000000000000000000000000008152600401612a1190613bef565b60405180910390fd5b60006002600084815260200190815260200160002090503373ffffffffffffffffffffffffffffffffffffffff168160090160009054906101000a900473ffffffffffffffffffffffffffffffffffffffff1673ffffffffffffffffffffffffffffffffffffffff1614612ac3576040517f08c379a0000000000000000000000000000000000000000000000000000000008152600401612aba90613c4f565b60405180910390fd5b60016002811115612afd577f4e487b7100000000000000000000000000000000000000000000000000000000600052602160045260246000fd5b8160080160009054906101000a900460ff166002811115612b47577f4e487b7100000000000000000000000000000000000000000000000000000000600052602160045260246000fd5b14612b87576040517f08c379a0000000000000000000000000000000000000000000000000000000008152600401612b7e90613caf565b60405180910390fd5b60028160080160006101000a81548160ff02191690836002811115612bd5577f4e487b7100000000000000000000000000000000000000000000000000000000600052602160045260246000fd5b02179055507f551f0673976650a1f260d5387f7614f0386a1f815f15e6e4e8bbc077e8be645d83604051612c09919061394d565b60405180910390a1505050565b612c1e612d41565b6040518060c001604052808881526020018781526020018681526020018581526020018481526020018381525090509695505050505050565b508054612c6390613f71565b6000825580601f10612c755750612c94565b601f016020900490600052602060002090810190612c939190612d77565b5b50565b828054612ca390613f71565b90600052602060002090601f016020900481019282612cc55760008555612d0c565b82601f10612cde57805160ff1916838001178555612d0c565b82800160010185558215612d0c579182015b82811115612d0b578251825591602001919060010190612cf0565b5b509050612d199190612d77565b5090565b5080546000825560030290600052602060002090810190612d3e9190612d94565b50565b6040518060c001604052806000815260200160008152602001600081526020016000815260200160008152602001600081525090565b5b80821115612d90576000816000905550600101612d78565b5090565b5b80821115612de657600080820160006101000a81549073ffffffffffffffffffffffffffffffffffffffff02191690556001820160009055600282016000612ddd9190612c57565b50600301612d95565b5090565b6000612dfd612df884613dfc565b613dcb565b905082815260208101848484011115612e1557600080fd5b612e20848285613f2f565b509392505050565b600081359050612e3781614084565b92915050565b600081359050612e4c8161409b565b92915050565b600081359050612e61816140b2565b92915050565b600082601f830112612e7857600080fd5b8135612e88848260208601612dea565b91505092915050565b600081359050612ea0816140c9565b92915050565b600060208284031215612eb857600080fd5b6000612ec684828501612e28565b91505092915050565b600080600060608486031215612ee457600080fd5b6000612ef286828701612e3d565b9350506020612f0386828701612e52565b925050604084013567ffffffffffffffff811115612f2057600080fd5b612f2c86828701612e67565b9150509250925092565b600060208284031215612f4857600080fd5b6000612f5684828501612e52565b91505092915050565b60008060408385031215612f7257600080fd5b6000612f8085828601612e52565b9250506020612f9185828601612e28565b9150509250929050565b600080600060608486031215612fb057600080fd5b6000612fbe86828701612e52565b9350506020612fcf86828701612e3d565b9250506040612fe086828701612e28565b9150509250925092565b600080600080600080600080610100898b03121561300757600080fd5b60006130158b828c01612e52565b985050602089013567ffffffffffffffff81111561303257600080fd5b61303e8b828c01612e67565b975050604061304f8b828c01612e91565b96505060606130608b828c01612e91565b95505060806130718b828c01612e91565b94505060a06130828b828c01612e91565b93505060c06130938b828c01612e91565b92505060e06130a48b828c01612e91565b9150509295985092959890939650565b6000806000606084860312156130c957600080fd5b60006130d786828701612e52565b93505060206130e886828701612e91565b92505060406130f986828701612e28565b9150509250925092565b60008060006060848603121561311857600080fd5b600061312686828701612e52565b935050602061313786828701612e91565b925050604084013567ffffffffffffffff81111561315457600080fd5b61316086828701612e67565b9150509250925092565b60008060006060848603121561317f57600080fd5b600061318d86828701612e52565b935050602061319e86828701612e91565b92505060406131af86828701612e91565b9150509250925092565b6000602082840312156131cb57600080fd5b600082013567ffffffffffffffff8111156131e557600080fd5b6131f184828501612e67565b91505092915050565b61320381613eb8565b82525050565b61321281613eca565b82525050565b61322181613ed6565b82525050565b61323081613f1d565b82525050565b600061324182613e2c565b61324b8185613e42565b935061325b818560208601613f3e565b6132648161405f565b840191505092915050565b600061327a82613e2c565b6132848185613e53565b9350613294818560208601613f3e565b80840191505092915050565b60006132ad601e83613e42565b91507f536572766963653a2063616c6c6572206973206e6f742063726561746f7200006000830152602082019050919050565b60006132ed601b83613e42565b91507f536572766963653a2063616c6c6572206e6f742063726561746f7200000000006000830152602082019050919050565b600061332d601583613e42565b91507f456e64706f696e743a206e6f74207965742073657400000000000000000000006000830152602082019050919050565b600061336d600f83613e42565b91507f5472616e73666572206661696c656400000000000000000000000000000000006000830152602082019050919050565b60006133ad601f83613e42565b91507f536572766963653a2063616c6c6572206973206e6f742070726f7669646572006000830152602082019050919050565b60006133ed601883613e42565b91507f4f70657261746f723a206e6f74207265676973746572656400000000000000006000830152602082019050919050565b600061342d602183613e42565b91507f4269643a207072696365206d7573742062652067726561746572207468616e2060008301527f30000000000000000000000000000000000000000000000000000000000000006020830152604082019050919050565b6000613493601983613e42565b91507f536572766963653a20616c7265616479206465706c6f796564000000000000006000830152602082019050919050565b60006134d3601a83613e42565b91507f4f6e6c792070726f76696465722063616e2077697468647261770000000000006000830152602082019050919050565b6000613513601483613e42565b91507f4e6f2066756e647320746f2077697468647261770000000000000000000000006000830152602082019050919050565b6000613553601183613e42565b91507f4e616d65206973206e6f742076616c69640000000000000000000000000000006000830152602082019050919050565b6000613593601783613e42565b91507f536572766963653a20646f6573206e6f742065786973740000000000000000006000830152602082019050919050565b60006135d3601c83613e42565b91507f4f70657261746f723a20616c72656164792072656769737465726564000000006000830152602082019050919050565b6000613613601483613e42565b91507f496e73756666696369656e74207061796d656e740000000000000000000000006000830152602082019050919050565b6000613653601583613e42565b91507f536572766963653a206e6f742070726f766964657200000000000000000000006000830152602082019050919050565b6000613693601183613e42565b91507f536572766963653a206e6f74206f70656e0000000000000000000000000000006000830152602082019050919050565b60006136d3600c83613e42565b91507f4269643a206e6f206269647300000000000000000000000000000000000000006000830152602082019050919050565b6000613713601383613e42565b91507f536572766963653a206e6f7420636c6f736564000000000000000000000000006000830152602082019050919050565b6000613753600083613e37565b9150600082019050919050565b600061376d601583613e42565b91507f536572766963653a206e6f74206465706c6f79656400000000000000000000006000830152602082019050919050565b60006137ad601483613e42565b91507f536572766963653a206e6f742063726561746f720000000000000000000000006000830152602082019050919050565b60006137ed601a83613e42565b91507f536572766963653a20494420616c7265616479206578697374730000000000006000830152602082019050919050565b600061382d601783613e42565b91507f4269643a20696e646578206f7574206f662072616e67650000000000000000006000830152602082019050919050565b61386981613f13565b82525050565b600061387b828461326f565b915081905092915050565b600061389182613746565b9150819050919050565b60006020820190506138b060008301846131fa565b92915050565b60006040820190506138cb60008301856131fa565b81810360208301526138dd8184613236565b90509392505050565b60006080820190506138fb60008301876131fa565b6139086020830186613860565b6139156040830185613860565b81810360608301526139278184613236565b905095945050505050565b60006020820190506139476000830184613209565b92915050565b60006020820190506139626000830184613218565b92915050565b600060408201905061397d6000830185613218565b818103602083015261398f8184613236565b90509392505050565b60006060820190506139ad6000830186613218565b81810360208301526139bf8185613236565b905081810360408301526139d38184613236565b9050949350505050565b60006040820190506139f26000830185613218565b6139ff6020830184613860565b9392505050565b6000602082019050613a1b6000830184613227565b92915050565b60006020820190508181036000830152613a3b8184613236565b905092915050565b60006080820190508181036000830152613a5d8187613236565b9050613a6c60208301866131fa565b613a796040830185613860565b613a866060830184613209565b95945050505050565b60006020820190508181036000830152613aa8816132a0565b9050919050565b60006020820190508181036000830152613ac8816132e0565b9050919050565b60006020820190508181036000830152613ae881613320565b9050919050565b60006020820190508181036000830152613b0881613360565b9050919050565b60006020820190508181036000830152613b28816133a0565b9050919050565b60006020820190508181036000830152613b48816133e0565b9050919050565b60006020820190508181036000830152613b6881613420565b9050919050565b60006020820190508181036000830152613b8881613486565b9050919050565b60006020820190508181036000830152613ba8816134c6565b9050919050565b60006020820190508181036000830152613bc881613506565b9050919050565b60006020820190508181036000830152613be881613546565b9050919050565b60006020820190508181036000830152613c0881613586565b9050919050565b60006020820190508181036000830152613c28816135c6565b9050919050565b60006020820190508181036000830152613c4881613606565b9050919050565b60006020820190508181036000830152613c6881613646565b9050919050565b60006020820190508181036000830152613c8881613686565b9050919050565b60006020820190508181036000830152613ca8816136c6565b9050919050565b60006020820190508181036000830152613cc881613706565b9050919050565b60006020820190508181036000830152613ce881613760565b9050919050565b60006020820190508181036000830152613d08816137a0565b9050919050565b60006020820190508181036000830152613d28816137e0565b9050919050565b60006020820190508181036000830152613d4881613820565b9050919050565b6000602082019050613d646000830184613860565b92915050565b600060c082019050613d7f6000830189613860565b613d8c6020830188613860565b613d996040830187613860565b613da66060830186613860565b613db36080830185613860565b613dc060a0830184613860565b979650505050505050565b6000604051905081810181811067ffffffffffffffff82111715613df257613df1614030565b5b8060405250919050565b600067ffffffffffffffff821115613e1757613e16614030565b5b601f19601f8301169050602081019050919050565b600081519050919050565b600081905092915050565b600082825260208201905092915050565b600081905092915050565b6000613e6982613f13565b9150613e7483613f13565b9250817fffffffffffffffffffffffffffffffffffffffffffffffffffffffffffffffff0483118215151615613ead57613eac613fa3565b5b828202905092915050565b6000613ec382613ef3565b9050919050565b60008115159050919050565b6000819050919050565b6000819050613eee82614070565b919050565b600073ffffffffffffffffffffffffffffffffffffffff82169050919050565b6000819050919050565b6000613f2882613ee0565b9050919050565b82818337600083830152505050565b60005b83811015613f5c578082015181840152602081019050613f41565b83811115613f6b576000848401525b50505050565b60006002820490506001821680613f8957607f821691505b60208210811415613f9d57613f9c614001565b5b50919050565b7f4e487b7100000000000000000000000000000000000000000000000000000000600052601160045260246000fd5b7f4e487b7100000000000000000000000000000000000000000000000000000000600052602160045260246000fd5b7f4e487b7100000000000000000000000000000000000000000000000000000000600052602260045260246000fd5b7f4e487b7100000000000000000000000000000000000000000000000000000000600052604160045260246000fd5b6000601f19601f8301169050919050565b6003811061408157614080613fd2565b5b50565b61408d81613eb8565b811461409857600080fd5b50565b6140a481613eca565b81146140af57600080fd5b50565b6140bb81613ed6565b81146140c657600080fd5b50565b6140d281613f13565b81146140dd57600080fd5b5056fea2646970667358221220780d84c0977cae6795c981c2678081a7380a77f3d3c616f71d5e58d70b6fc50864736f6c63430008000033",
  "immutableReferences": {},
  "source": "// SPDX-License-Identifier: MIT\npragma solidity ^0.8.0;\n\n\n// Define the smart contract\ncontract Federation {\n\n    // Possible states of a service\n    enum ServiceState {Open, Closed, Deployed}\n\n    // Structs\n    struct Operator {\n        string name;\n        address payable operatorAddress;\n        uint256 registrationTime;\n        bool registered;\n    }\n\n    struct Endpoint {\n        string deploymentManifestIpfsCid; \n    }\n\n    struct ServiceRequirements {\n        uint256 availability; // In percentage * 100 (e.g., 9990 = 99.90%)\n        uint256 maxLatencyMs;\n        uint256 maxJitterMs;\n        uint256 minBandwidthMbps;      \n        uint256 resourceCpuMillicores;\n        uint256 resourceRamMB;\n    }\n\n    struct Service {\n        bytes32 serviceId; // Example \"service123\" -> 0x7365727669636531323300000000000000000000000000000000000000000000\n        string description; \n        ServiceRequirements requirements;\n        ServiceState state;\n        address payable creator;\n        address payable provider;\n        bytes32 endpointConsumer; \n        bytes32 endpointProvider; \n    }\n\n    struct Bid {\n        address payable bidAddress;\n        uint256 priceWeiPerHour; // Cost in wei per hour of service\n        string location;\n    }\n    \n    // Mappings\n    mapping(bytes32 => uint) private bidCount;\n    mapping(bytes32 => Bid[]) private bids;\n    mapping(bytes32 => Service) private service;\n    mapping(address => Operator) private operator;\n    mapping(bytes32 => Endpoint) private endpoints;\n    mapping(bytes32 => uint256) private lockedPayments;\n    mapping(bytes32 => uint256) private expectedServiceUtilizationHours;\n\n    // Events\n    event OperatorRegistered(address operator, string name);\n    event OperatorRemoved(address operator);\n    event ServiceAnnouncement(bytes32 serviceId, string description);\n    event NewBid(bytes32 serviceId, uint256 biderIndex);\n    event ServiceAnnouncementClosed(bytes32 serviceId);\n    event ConsumerEndpointUpdated(bytes32 serviceId);\n    event ProviderEndpointUpdated(bytes32 serviceId);    \n    event ServiceDeployed(bytes32 serviceId);\n    event ServiceCancelled(bytes32 serviceId);\n\n    // Modifiers\n    modifier onlyRegistered() {\n        require(operator[msg.sender].registered, \"Operator: not registered\");\n        _;\n    }\n\n    modifier serviceExists(bytes32 serviceId) {\n        require(service[serviceId].serviceId == serviceId, \"Service: does not exist\");\n        _;\n    }\n\n    modifier onlyServiceCreator(bytes32 serviceId) {\n        require(service[serviceId].creator == msg.sender, \"Service: caller is not creator\");\n        _;\n    }\n\n    function addOperator(string memory name) public {\n        require(bytes(name).length > 0, \"Name is not valid\");\n        require(!operator[msg.sender].registered, \"Operator: already registered\");\n        \n        operator[msg.sender] = Operator({\n                name: name,\n                operatorAddress: payable(msg.sender),\n                registrationTime: block.timestamp,\n                registered: true\n        });\n        emit OperatorRegistered(msg.sender, name);\n    }\n\n    function removeOperator() public onlyRegistered {\n        delete operator[msg.sender];\n        emit OperatorRemoved(msg.sender);\n    }\n\n    function getOperatorInfo(address callAddress) public view returns (\n        string memory name,\n        address opAddress,\n        uint256 registrationTime,\n        bool registered\n    ) {\n        Operator storage op = operator[callAddress];\n        require(op.registered == true, \"Operator: not registered\");\n        return (op.name, op.operatorAddress, op.registrationTime, op.registered);\n    }\n\n\n    function createServiceRequirements(\n        uint256 availability,\n        uint256 maxLatencyMs,\n        uint256 maxJitterMs,\n        uint256 minBandwidthMbps,\n        uint256 resourceCpuMillicores,\n        uint256 resourceRamMB\n    ) internal pure returns (ServiceRequirements memory) {\n        return ServiceRequirements({\n            availability: availability,\n            maxLatencyMs: maxLatencyMs,\n            maxJitterMs: maxJitterMs,\n            minBandwidthMbps: minBandwidthMbps,\n            resourceCpuMillicores: resourceCpuMillicores,\n            resourceRamMB: resourceRamMB\n        });\n    }\n\n    function announceService(\n        bytes32 serviceId,\n        string memory description,\n        uint256 availability,\n        uint256 maxLatencyMs,\n        uint256 maxJitterMs,\n        uint256 minBandwidthMbps,\n        uint256 resourceCpuMillicores,\n        uint256 resourceRamMB\n    ) public onlyRegistered {\n        require(service[serviceId].serviceId != serviceId, \"Service: ID already exists\");\n\n        ServiceRequirements memory reqs = createServiceRequirements(\n            availability,\n            maxLatencyMs,\n            maxJitterMs,\n            minBandwidthMbps,\n            resourceCpuMillicores,\n            resourceRamMB\n        );\n\n        Service storage newService = service[serviceId];\n\n        newService.serviceId = serviceId;\n        newService.description = description;\n        newService.state = ServiceState.Open;\n        newService.creator = payable(msg.sender);\n        newService.provider = payable(msg.sender);\n        newService.requirements = reqs;\n\n        emit ServiceAnnouncement(serviceId, description);\n    }\n\n    function updateEndpoint(\n        bool isProvider, \n        bytes32 serviceId,\n        string memory deploymentManifestIpfsCid\n    ) public onlyRegistered serviceExists(serviceId) {\n        Service storage currentService = service[serviceId];\n       \n        bytes32 endpointKeccak = keccak256(abi.encodePacked(deploymentManifestIpfsCid));\n        endpoints[endpointKeccak] = Endpoint(deploymentManifestIpfsCid);\n\n        if(isProvider) {\n            require(currentService.state >= ServiceState.Closed, \"Service: not closed\");\n            require(currentService.provider == msg.sender, \"Service: caller is not provider\");\n            currentService.endpointProvider = endpointKeccak;\n            emit ProviderEndpointUpdated(serviceId);\n        }\n        else {\n            require(currentService.creator == msg.sender, \"Service: caller is not creator\");\n            currentService.endpointConsumer = endpointKeccak;\n            emit ConsumerEndpointUpdated(serviceId);\n        }\n    }\n        \n    function getServiceState(bytes32 serviceId) public view returns (ServiceState) {\n        return service[serviceId].state;\n    }\n\n    function getServiceRequirements(bytes32 serviceId) public view serviceExists(serviceId) returns (\n        uint256 availability,\n        uint256 maxLatencyMs,\n        uint256 maxJitterMs,\n        uint256 minBandwidthMbps,\n        uint256 resourceCpuMillicores,\n        uint256 resourceRamMB\n    ) {\n        ServiceRequirements memory reqs = service[serviceId].requirements;\n        return (\n            reqs.availability,\n            reqs.maxLatencyMs,\n            reqs.maxJitterMs,\n            reqs.minBandwidthMbps,\n            reqs.resourceCpuMillicores,\n            reqs.resourceRamMB\n        );\n    }\n\n    function getServiceInfo(\n        bytes32 serviceId, \n        bool isProvider, \n        address callAddress\n    ) public view returns (bytes32, string memory, string memory) {\n        Service storage currentService = service[serviceId];\n        require(operator[callAddress].registered, \"Operator: not registered\");\n        require(currentService.state >= ServiceState.Closed, \"Service: not closed\");\n\n        Endpoint storage ep = isProvider\n            ? endpoints[currentService.endpointConsumer]\n            : endpoints[currentService.endpointProvider];\n        \n        require(bytes(ep.deploymentManifestIpfsCid).length > 0, \"Endpoint: not yet set\");\n\n        if(isProvider) {\n            require(currentService.provider == callAddress, \"Service: not provider\");\n        } else {\n            require(currentService.creator == callAddress, \"Service: not creator\");\n        }\n\n        return (currentService.serviceId, currentService.description, ep.deploymentManifestIpfsCid);\n\n    }\n\n    function getServiceEndpoint(bytes32 endpointId, address callAddress) public view returns (string memory) {\n        require(operator[callAddress].registered, \"Operator: not registered\");\n\n        Endpoint storage ep = endpoints[endpointId];\n        return (ep.deploymentManifestIpfsCid);\n    }\n\n    function placeBid(\n        bytes32 serviceId, \n        uint256 priceWeiPerHour,\n        string memory location\n    ) public onlyRegistered serviceExists(serviceId) {\n        Service storage currentService = service[serviceId];\n        require(currentService.state == ServiceState.Open, \"Service: not open\");\n        require(priceWeiPerHour > 0, \"Bid: price must be greater than 0\");\n\n        // require(msg.sender != currentService.creator, \"Bid: cannot bid on own service\");\n\n        bids[serviceId].push(Bid(payable(msg.sender), priceWeiPerHour, location));\n        uint256 index = bids[serviceId].length;\n        bidCount[serviceId] = index;\n\n        emit NewBid(serviceId, index);\n    }\n\n    function getBidCount(bytes32 serviceId, address callAddress) public view serviceExists(serviceId) returns (uint256) {\n        require(service[serviceId].creator == callAddress, \"Service: caller not creator\");\n        return bidCount[serviceId];\n    }\n\n    function getBidInfo(bytes32 serviceId, uint256 index, address callAddress) public view serviceExists(serviceId) returns (address, uint256, uint256, string memory) {\n        require(service[serviceId].creator == callAddress, \"Service: caller not creator\");\n        Bid[] storage bidPool = bids[serviceId];\n        require(bidPool.length > 0, \"Bid: no bids\");\n        require(index < bidPool.length, \"Bid: index out of range\");\n\n        Bid storage b = bidPool[index];\n        return (b.bidAddress, b.priceWeiPerHour, index, b.location);\n    }\n\n    function chooseProvider(bytes32 serviceId, uint256 biderIndex, uint256 expectedHours) payable public serviceExists(serviceId) onlyServiceCreator(serviceId) {\n        Service storage currentService = service[serviceId];\n        require(currentService.state == ServiceState.Open, \"Service: not open\");\n        require(biderIndex < bids[serviceId].length, \"Bid: index out of range\");\n    \n        Bid storage winningBid = bids[serviceId][biderIndex];\n        uint256 requiredAmount = winningBid.priceWeiPerHour * expectedHours;\n        require(msg.value >= requiredAmount, \"Insufficient payment\");\n\n        currentService.state = ServiceState.Closed;\n        currentService.provider = bids[serviceId][biderIndex].bidAddress;\n        lockedPayments[serviceId] = msg.value;\n        expectedServiceUtilizationHours[serviceId] = expectedHours;\n\n        emit ServiceAnnouncementClosed(serviceId);\n    }\n\n\n    function withdrawPayment(bytes32 serviceId) public serviceExists(serviceId) {\n        Service storage currentService = service[serviceId];\n        require(currentService.state == ServiceState.Deployed, \"Service: not deployed\");\n        require(currentService.provider == msg.sender, \"Only provider can withdraw\");\n\n        uint256 amount = lockedPayments[serviceId];\n        require(amount > 0, \"No funds to withdraw\");\n\n        lockedPayments[serviceId] = 0;\n        (bool sent, ) = msg.sender.call{value: amount}(\"\");\n        require(sent, \"Transfer failed\");\n    }\n\n\n    function isWinner(bytes32 serviceId, address callAddress) public view serviceExists(serviceId) returns (bool) {\n        Service storage currentService = service[serviceId];\n        require(currentService.state == ServiceState.Closed, \"Service: not closed\");\n        \n        return currentService.provider == callAddress;\n    }\n\n    function serviceDeployed(bytes32 serviceId) public serviceExists(serviceId) {\n        Service storage currentService = service[serviceId];\n        require(currentService.provider == msg.sender, \"Service: not provider\");\n        require(currentService.state == ServiceState.Closed, \"Service: not closed\");\n        \n        currentService.state = ServiceState.Deployed;\n        \n        emit ServiceDeployed(serviceId);\n    }\n\n    function cancelService(bytes32 serviceId) public serviceExists(serviceId) onlyServiceCreator(serviceId) {\n        Service storage currentService = service[serviceId];\n        require(currentService.state != ServiceState.Deployed, \"Service: already deployed\");\n\n        delete service[serviceId];\n        delete bids[serviceId];\n        delete bidCount[serviceId];\n\n        emit ServiceCancelled(serviceId);\n    }\n}\n\n\n",
  "sourcePath": "/smart-contracts/contracts/Federation.sol",
  "compiler": {
    "name": "solc",
    "version": "0.8.0+commit.c7dfd78e.Emscripten.clang"
  },
  "schemaVersion": "3.4.16",
  "updatedAt": "2025-10-26T15:09:41.668Z",
  "networkType": "ethereum",
  "devdoc": {
    "kind": "dev",
    "methods": {},
    "version": 1
  },
  "userdoc": {
    "kind": "user",
    "methods": {},
    "version": 1
  }
}