{
  "contractName": "Federation",
  "abi": [
    {
      "anonymous": false,
      "inputs": [
        {
          "indexed": false,
          "internalType": "bytes32",
          "name": "serviceId",
          "type": "bytes32"
        }
      ],
      "name": "ConsumerEndpointUpdated",
      "type": "event"
    },
    {
      "anonymous": false,
      "inputs": [
        {
          "indexed": false,
          "internalType": "bytes32",
          "name": "serviceId",
          "type": "bytes32"
        },
        {
          "indexed": false,
          "internalType": "uint256",
          "name": "biderIndex",
          "type": "uint256"
        }
      ],
      "name": "NewBid",
      "type": "event"
    },
    {
      "anonymous": false,
      "inputs": [
        {
          "indexed": false,
          "internalType": "address",
          "name": "operator",
          "type": "address"
        },
        {
          "indexed": false,
          "internalType": "string",
          "name": "name",
          "type": "string"
        }
      ],
      "name": "OperatorRegistered",
      "type": "event"
    },
    {
      "anonymous": false,
      "inputs": [
        {
          "indexed": false,
          "internalType": "address",
          "name": "operator",
          "type": "address"
        }
      ],
      "name": "OperatorRemoved",
      "type": "event"
    },
    {
      "anonymous": false,
      "inputs": [
        {
          "indexed": false,
          "internalType": "bytes32",
          "name": "serviceId",
          "type": "bytes32"
        }
      ],
      "name": "ProviderEndpointUpdated",
      "type": "event"
    },
    {
      "anonymous": false,
      "inputs": [
        {
          "indexed": false,
          "internalType": "bytes32",
          "name": "serviceId",
          "type": "bytes32"
        },
        {
          "indexed": false,
          "internalType": "string",
          "name": "description",
          "type": "string"
        }
      ],
      "name": "ServiceAnnouncement",
      "type": "event"
    },
    {
      "anonymous": false,
      "inputs": [
        {
          "indexed": false,
          "internalType": "bytes32",
          "name": "serviceId",
          "type": "bytes32"
        }
      ],
      "name": "ServiceAnnouncementClosed",
      "type": "event"
    },
    {
      "anonymous": false,
      "inputs": [
        {
          "indexed": false,
          "internalType": "bytes32",
          "name": "serviceId",
          "type": "bytes32"
        }
      ],
      "name": "ServiceCancelled",
      "type": "event"
    },
    {
      "anonymous": false,
      "inputs": [
        {
          "indexed": false,
          "internalType": "bytes32",
          "name": "serviceId",
          "type": "bytes32"
        }
      ],
      "name": "ServiceDeployed",
      "type": "event"
    },
    {
      "inputs": [
        {
          "internalType": "string",
          "name": "name",
          "type": "string"
        }
      ],
      "name": "addOperator",
      "outputs": [],
      "stateMutability": "nonpayable",
      "type": "function"
    },
    {
      "inputs": [],
      "name": "removeOperator",
      "outputs": [],
      "stateMutability": "nonpayable",
      "type": "function"
    },
    {
      "inputs": [
        {
          "internalType": "address",
          "name": "callAddress",
          "type": "address"
        }
      ],
      "name": "getOperatorInfo",
      "outputs": [
        {
          "internalType": "string",
          "name": "name",
          "type": "string"
        },
        {
          "internalType": "address",
          "name": "opAddress",
          "type": "address"
        },
        {
          "internalType": "uint256",
          "name": "registrationTime",
          "type": "uint256"
        },
        {
          "internalType": "bool",
          "name": "registered",
          "type": "bool"
        }
      ],
      "stateMutability": "view",
      "type": "function",
      "constant": true
    },
    {
      "inputs": [
        {
          "internalType": "bytes32",
          "name": "serviceId",
          "type": "bytes32"
        },
        {
          "internalType": "string",
          "name": "description",
          "type": "string"
        },
        {
          "internalType": "uint256",
          "name": "availability",
          "type": "uint256"
        },
        {
          "internalType": "uint256",
          "name": "maxLatencyMs",
          "type": "uint256"
        },
        {
          "internalType": "uint256",
          "name": "maxJitterMs",
          "type": "uint256"
        },
        {
          "internalType": "uint256",
          "name": "minBandwidthMbps",
          "type": "uint256"
        },
        {
          "internalType": "uint256",
          "name": "resourceCpuMillicores",
          "type": "uint256"
        },
        {
          "internalType": "uint256",
          "name": "resourceRamMB",
          "type": "uint256"
        }
      ],
      "name": "announceService",
      "outputs": [],
      "stateMutability": "nonpayable",
      "type": "function"
    },
    {
      "inputs": [
        {
          "internalType": "bool",
          "name": "isProvider",
          "type": "bool"
        },
        {
          "internalType": "bytes32",
          "name": "serviceId",
          "type": "bytes32"
        },
        {
          "internalType": "string",
          "name": "endpointServiceCatalogDb",
          "type": "string"
        },
        {
          "internalType": "string",
          "name": "endpointTopologyDb",
          "type": "string"
        },
        {
          "internalType": "string",
          "name": "endpointNsdId",
          "type": "string"
        },
        {
          "internalType": "string",
          "name": "endpointNsId",
          "type": "string"
        }
      ],
      "name": "updateEndpoint",
      "outputs": [],
      "stateMutability": "nonpayable",
      "type": "function"
    },
    {
      "inputs": [
        {
          "internalType": "bytes32",
          "name": "serviceId",
          "type": "bytes32"
        }
      ],
      "name": "getServiceState",
      "outputs": [
        {
          "internalType": "enum Federation.ServiceState",
          "name": "",
          "type": "uint8"
        }
      ],
      "stateMutability": "view",
      "type": "function",
      "constant": true
    },
    {
      "inputs": [
        {
          "internalType": "bytes32",
          "name": "serviceId",
          "type": "bytes32"
        }
      ],
      "name": "getServiceRequirements",
      "outputs": [
        {
          "internalType": "uint256",
          "name": "availability",
          "type": "uint256"
        },
        {
          "internalType": "uint256",
          "name": "maxLatencyMs",
          "type": "uint256"
        },
        {
          "internalType": "uint256",
          "name": "maxJitterMs",
          "type": "uint256"
        },
        {
          "internalType": "uint256",
          "name": "minBandwidthMbps",
          "type": "uint256"
        },
        {
          "internalType": "uint256",
          "name": "resourceCpuMillicores",
          "type": "uint256"
        },
        {
          "internalType": "uint256",
          "name": "resourceRamMB",
          "type": "uint256"
        }
      ],
      "stateMutability": "view",
      "type": "function",
      "constant": true
    },
    {
      "inputs": [
        {
          "internalType": "bytes32",
          "name": "serviceId",
          "type": "bytes32"
        },
        {
          "internalType": "bool",
          "name": "isProvider",
          "type": "bool"
        },
        {
          "internalType": "address",
          "name": "callAddress",
          "type": "address"
        }
      ],
      "name": "getServiceInfo",
      "outputs": [
        {
          "internalType": "bytes32",
          "name": "",
          "type": "bytes32"
        },
        {
          "internalType": "string",
          "name": "",
          "type": "string"
        },
        {
          "internalType": "string",
          "name": "",
          "type": "string"
        },
        {
          "internalType": "string",
          "name": "",
          "type": "string"
        },
        {
          "internalType": "string",
          "name": "",
          "type": "string"
        },
        {
          "internalType": "string",
          "name": "",
          "type": "string"
        }
      ],
      "stateMutability": "view",
      "type": "function",
      "constant": true
    },
    {
      "inputs": [
        {
          "internalType": "bytes32",
          "name": "endpointId",
          "type": "bytes32"
        },
        {
          "internalType": "address",
          "name": "callAddress",
          "type": "address"
        }
      ],
      "name": "getServiceEndpoint",
      "outputs": [
        {
          "internalType": "string",
          "name": "",
          "type": "string"
        },
        {
          "internalType": "string",
          "name": "",
          "type": "string"
        },
        {
          "internalType": "string",
          "name": "",
          "type": "string"
        },
        {
          "internalType": "string",
          "name": "",
          "type": "string"
        }
      ],
      "stateMutability": "view",
      "type": "function",
      "constant": true
    },
    {
      "inputs": [
        {
          "internalType": "bytes32",
          "name": "serviceId",
          "type": "bytes32"
        },
        {
          "internalType": "uint32",
          "name": "priceWeiPerHour",
          "type": "uint32"
        },
        {
          "internalType": "string",
          "name": "location",
          "type": "string"
        }
      ],
      "name": "placeBid",
      "outputs": [],
      "stateMutability": "nonpayable",
      "type": "function"
    },
    {
      "inputs": [
        {
          "internalType": "bytes32",
          "name": "serviceId",
          "type": "bytes32"
        },
        {
          "internalType": "address",
          "name": "callAddress",
          "type": "address"
        }
      ],
      "name": "getBidCount",
      "outputs": [
        {
          "internalType": "uint256",
          "name": "",
          "type": "uint256"
        }
      ],
      "stateMutability": "view",
      "type": "function",
      "constant": true
    },
    {
      "inputs": [
        {
          "internalType": "bytes32",
          "name": "serviceId",
          "type": "bytes32"
        },
        {
          "internalType": "uint256",
          "name": "index",
          "type": "uint256"
        },
        {
          "internalType": "address",
          "name": "callAddress",
          "type": "address"
        }
      ],
      "name": "getBidInfo",
      "outputs": [
        {
          "internalType": "address",
          "name": "",
          "type": "address"
        },
        {
          "internalType": "uint256",
          "name": "",
          "type": "uint256"
        },
        {
          "internalType": "uint256",
          "name": "",
          "type": "uint256"
        },
        {
          "internalType": "string",
          "name": "",
          "type": "string"
        }
      ],
      "stateMutability": "view",
      "type": "function",
      "constant": true
    },
    {
      "inputs": [
        {
          "internalType": "bytes32",
          "name": "serviceId",
          "type": "bytes32"
        },
        {
          "internalType": "uint256",
          "name": "biderIndex",
          "type": "uint256"
        },
        {
          "internalType": "uint256",
          "name": "expectedHours",
          "type": "uint256"
        }
      ],
      "name": "chooseProvider",
      "outputs": [],
      "stateMutability": "payable",
      "type": "function",
      "payable": true
    },
    {
      "inputs": [
        {
          "internalType": "bytes32",
          "name": "serviceId",
          "type": "bytes32"
        }
      ],
      "name": "withdrawPayment",
      "outputs": [],
      "stateMutability": "nonpayable",
      "type": "function"
    },
    {
      "inputs": [
        {
          "internalType": "bytes32",
          "name": "serviceId",
          "type": "bytes32"
        },
        {
          "internalType": "address",
          "name": "callAddress",
          "type": "address"
        }
      ],
      "name": "isWinner",
      "outputs": [
        {
          "internalType": "bool",
          "name": "",
          "type": "bool"
        }
      ],
      "stateMutability": "view",
      "type": "function",
      "constant": true
    },
    {
      "inputs": [
        {
          "internalType": "bytes32",
          "name": "serviceId",
          "type": "bytes32"
        }
      ],
      "name": "serviceDeployed",
      "outputs": [],
      "stateMutability": "nonpayable",
      "type": "function"
    },
    {
      "inputs": [
        {
          "internalType": "bytes32",
          "name": "serviceId",
          "type": "bytes32"
        }
      ],
      "name": "cancelService",
      "outputs": [],
      "stateMutability": "nonpayable",
      "type": "function"
    }
  ],
  "bytecode": "0x608060405234801561001057600080fd5b5061467b806100206000396000f3fe6080604052600436106100fe5760003560e01c80637d6b2b4911610095578063b46e884311610064578063b46e88431461033f578063c54494631461037c578063d96a2853146103be578063dec709d0146103fe578063f1bd089014610427576100fe565b80637d6b2b491461026e5780639cc19f5b14610297578063a22aeacf146102d4578063b01a61fe14610316576100fe565b80633d935eaa116100d15780633d935eaa146101b65780635ce56833146101df5780637886a0f4146102085780637aaf7a5014610245576100fe565b806320e545481461010357806327d9ab5d1461011a5780632fd9e8be1461015a5780633ca1a41c14610176575b600080fd5b34801561010f57600080fd5b50610118610450565b005b34801561012657600080fd5b50610141600480360381019061013c91906132bd565b6105ad565b6040516101519493929190613f20565b60405180910390f35b610174600480360381019061016f919061359c565b61072a565b005b34801561018257600080fd5b5061019d6004803603810190610198919061354d565b610b92565b6040516101ad9493929190613da6565b60405180910390f35b3480156101c257600080fd5b506101dd60048036038101906101d891906133cf565b610e54565b005b3480156101eb57600080fd5b5061020660048036038101906102019190613652565b611140565b005b34801561021457600080fd5b5061022f600480360381019061022a91906133cf565b61135a565b60405161023c9190613f05565b60405180910390f35b34801561025157600080fd5b5061026c60048036038101906102679190613483565b611387565b005b34801561027a57600080fd5b50610295600480360381019061029091906133cf565b61161c565b005b3480156102a357600080fd5b506102be60048036038101906102b991906133f8565b61193e565b6040516102cb9190613df2565b60405180910390f35b3480156102e057600080fd5b506102fb60048036038101906102f69190613434565b611ad1565b60405161030d96959493929190613e58565b60405180910390f35b34801561032257600080fd5b5061033d600480360381019061033891906132e6565b6120f5565b005b34801561034b57600080fd5b50610366600480360381019061036191906133f8565b612550565b604051610373919061428d565b60405180910390f35b34801561038857600080fd5b506103a3600480360381019061039e91906133cf565b61266b565b6040516103b5969594939291906142a8565b60405180910390f35b3480156103ca57600080fd5b506103e560048036038101906103e091906133f8565b612763565b6040516103f59493929190613f6c565b60405180910390f35b34801561040a57600080fd5b50610425600480360381019061042091906135eb565b612a61565b005b34801561043357600080fd5b5061044e600480360381019061044991906133cf565b612dc3565b005b600360003373ffffffffffffffffffffffffffffffffffffffff1673ffffffffffffffffffffffffffffffffffffffff16815260200190815260200160002060030160009054906101000a900460ff166104df576040517f08c379a00000000000000000000000000000000000000000000000000000000081526004016104d69061406d565b60405180910390fd5b600360003373ffffffffffffffffffffffffffffffffffffffff1673ffffffffffffffffffffffffffffffffffffffff1681526020019081526020016000206000808201600061052f9190613059565b6001820160006101000a81549073ffffffffffffffffffffffffffffffffffffffff021916905560028201600090556003820160006101000a81549060ff021916905550507f80c0b871b97b595b16a7741c1b06fed0c6f6f558639f18ccbce50724325dc40d336040516105a39190613d5b565b60405180910390a1565b6060600080600080600360008773ffffffffffffffffffffffffffffffffffffffff1673ffffffffffffffffffffffffffffffffffffffff1681526020019081526020016000209050600115158160030160009054906101000a900460ff1615151461064e576040517f08c379a00000000000000000000000000000000000000000000000000000000081526004016106459061406d565b60405180910390fd5b806000018160010160009054906101000a900473ffffffffffffffffffffffffffffffffffffffff1682600201548360030160009054906101000a900460ff1683805461069a906144bf565b80601f01602080910402602001604051908101604052809291908181526020018280546106c6906144bf565b80156107135780601f106106e857610100808354040283529160200191610713565b820191906000526020600020905b8154815290600101906020018083116106f657829003601f168201915b505050505093509450945094509450509193509193565b8280600260008381526020019081526020016000206000015414610783576040517f08c379a000000000000000000000000000000000000000000000000000000000815260040161077a9061412d565b60405180910390fd5b833373ffffffffffffffffffffffffffffffffffffffff166002600083815260200190815260200160002060080160019054906101000a900473ffffffffffffffffffffffffffffffffffffffff1673ffffffffffffffffffffffffffffffffffffffff1614610828576040517f08c379a000000000000000000000000000000000000000000000000000000000815260040161081f90613fcd565b60405180910390fd5b600060026000878152602001908152602001600020905060006002811115610879577f4e487b7100000000000000000000000000000000000000000000000000000000600052602160045260246000fd5b8160080160009054906101000a900460ff1660028111156108c3577f4e487b7100000000000000000000000000000000000000000000000000000000600052602160045260246000fd5b14610903576040517f08c379a00000000000000000000000000000000000000000000000000000000081526004016108fa906141ad565b60405180910390fd5b6001600087815260200190815260200160002080549050851061095b576040517f08c379a00000000000000000000000000000000000000000000000000000000081526004016109529061426d565b60405180910390fd5b60006001600088815260200190815260200160002086815481106109a8577f4e487b7100000000000000000000000000000000000000000000000000000000600052603260045260246000fd5b9060005260206000209060030201905060008582600101546109ca919061439c565b905080341015610a0f576040517f08c379a0000000000000000000000000000000000000000000000000000000008152600401610a069061416d565b60405180910390fd5b60018360080160006101000a81548160ff02191690836002811115610a5d577f4e487b7100000000000000000000000000000000000000000000000000000000600052602160045260246000fd5b0217905550600160008981526020019081526020016000208781548110610aad577f4e487b7100000000000000000000000000000000000000000000000000000000600052603260045260246000fd5b906000526020600020906003020160000160009054906101000a900473ffffffffffffffffffffffffffffffffffffffff168360090160006101000a81548173ffffffffffffffffffffffffffffffffffffffff021916908373ffffffffffffffffffffffffffffffffffffffff16021790555034600560008a81526020019081526020016000208190555085600660008a8152602001908152602001600020819055507f0fa967e5a697cd5b1a32e3ed8e2a5b983caf2ae1bb54e8fe37fae071347e8fea88604051610b809190613e0d565b60405180910390a15050505050505050565b600080600060608680600260008381526020019081526020016000206000015414610bf2576040517f08c379a0000000000000000000000000000000000000000000000000000000008152600401610be99061412d565b60405180910390fd5b8573ffffffffffffffffffffffffffffffffffffffff16600260008a815260200190815260200160002060080160019054906101000a900473ffffffffffffffffffffffffffffffffffffffff1673ffffffffffffffffffffffffffffffffffffffff1614610c96576040517f08c379a0000000000000000000000000000000000000000000000000000000008152600401610c8d90613fed565b60405180910390fd5b6000600160008a815260200190815260200160002090506000818054905011610cf4576040517f08c379a0000000000000000000000000000000000000000000000000000000008152600401610ceb906141cd565b60405180910390fd5b80805490508810610d3a576040517f08c379a0000000000000000000000000000000000000000000000000000000008152600401610d319061426d565b60405180910390fd5b6000818981548110610d75577f4e487b7100000000000000000000000000000000000000000000000000000000600052603260045260246000fd5b906000526020600020906003020190508060000160009054906101000a900473ffffffffffffffffffffffffffffffffffffffff1681600101548a83600201808054610dc0906144bf565b80601f0160208091040260200160405190810160405280929190818152602001828054610dec906144bf565b8015610e395780601f10610e0e57610100808354040283529160200191610e39565b820191906000526020600020905b815481529060010190602001808311610e1c57829003601f168201915b50505050509050965096509650965050505093509350935093565b8080600260008381526020019081526020016000206000015414610ead576040517f08c379a0000000000000000000000000000000000000000000000000000000008152600401610ea49061412d565b60405180910390fd5b6000600260008481526020019081526020016000209050600280811115610efd577f4e487b7100000000000000000000000000000000000000000000000000000000600052602160045260246000fd5b8160080160009054906101000a900460ff166002811115610f47577f4e487b7100000000000000000000000000000000000000000000000000000000600052602160045260246000fd5b14610f87576040517f08c379a0000000000000000000000000000000000000000000000000000000008152600401610f7e9061420d565b60405180910390fd5b3373ffffffffffffffffffffffffffffffffffffffff168160090160009054906101000a900473ffffffffffffffffffffffffffffffffffffffff1673ffffffffffffffffffffffffffffffffffffffff1614611019576040517f08c379a0000000000000000000000000000000000000000000000000000000008152600401611010906140cd565b60405180910390fd5b60006005600085815260200190815260200160002054905060008111611074576040517f08c379a000000000000000000000000000000000000000000000000000000000815260040161106b906140ed565b60405180910390fd5b6000600560008681526020019081526020016000208190555060003373ffffffffffffffffffffffffffffffffffffffff16826040516110b390613d46565b60006040518083038185875af1925050503d80600081146110f0576040519150601f19603f3d011682016040523d82523d6000602084013e6110f5565b606091505b5050905080611139576040517f08c379a00000000000000000000000000000000000000000000000000000000081526004016111309061402d565b60405180910390fd5b5050505050565b6000815111611184576040517f08c379a000000000000000000000000000000000000000000000000000000000815260040161117b9061410d565b60405180910390fd5b600360003373ffffffffffffffffffffffffffffffffffffffff1673ffffffffffffffffffffffffffffffffffffffff16815260200190815260200160002060030160009054906101000a900460ff1615611214576040517f08c379a000000000000000000000000000000000000000000000000000000000815260040161120b9061414d565b60405180910390fd5b60405180608001604052808281526020013373ffffffffffffffffffffffffffffffffffffffff16815260200142815260200160011515815250600360003373ffffffffffffffffffffffffffffffffffffffff1673ffffffffffffffffffffffffffffffffffffffff16815260200190815260200160002060008201518160000190805190602001906112a9929190613099565b5060208201518160010160006101000a81548173ffffffffffffffffffffffffffffffffffffffff021916908373ffffffffffffffffffffffffffffffffffffffff1602179055506040820151816002015560608201518160030160006101000a81548160ff0219169083151502179055509050507f11a85ea4a40584362c3d9c17685709a2e02b466ac78d5eb00b6aff73d90f5805338260405161134f929190613d76565b60405180910390a150565b60006002600083815260200190815260200160002060080160009054906101000a900460ff169050919050565b600360003373ffffffffffffffffffffffffffffffffffffffff1673ffffffffffffffffffffffffffffffffffffffff16815260200190815260200160002060030160009054906101000a900460ff16611416576040517f08c379a000000000000000000000000000000000000000000000000000000000815260040161140d9061406d565b60405180910390fd5b87600260008a815260200190815260200160002060000154141561146f576040517f08c379a00000000000000000000000000000000000000000000000000000000081526004016114669061424d565b60405180910390fd5b600061147f878787878787613018565b90506000600260008b81526020019081526020016000209050898160000181905550888160010190805190602001906114b9929190613099565b5060008160080160006101000a81548160ff02191690836002811115611508577f4e487b7100000000000000000000000000000000000000000000000000000000600052602160045260246000fd5b0217905550338160080160016101000a81548173ffffffffffffffffffffffffffffffffffffffff021916908373ffffffffffffffffffffffffffffffffffffffff160217905550338160090160006101000a81548173ffffffffffffffffffffffffffffffffffffffff021916908373ffffffffffffffffffffffffffffffffffffffff1602179055508181600201600082015181600001556020820151816001015560408201518160020155606082015181600301556080820151816004015560a082015181600501559050507f1f9d577c7e5f1143cf185f915e072fc815fe000d836dd55a38ac2500edb7ed868a8a604051611608929190613e28565b60405180910390a150505050505050505050565b8080600260008381526020019081526020016000206000015414611675576040517f08c379a000000000000000000000000000000000000000000000000000000000815260040161166c9061412d565b60405180910390fd5b813373ffffffffffffffffffffffffffffffffffffffff166002600083815260200190815260200160002060080160019054906101000a900473ffffffffffffffffffffffffffffffffffffffff1673ffffffffffffffffffffffffffffffffffffffff161461171a576040517f08c379a000000000000000000000000000000000000000000000000000000000815260040161171190613fcd565b60405180910390fd5b600060026000858152602001908152602001600020905060028081111561176a577f4e487b7100000000000000000000000000000000000000000000000000000000600052602160045260246000fd5b8160080160009054906101000a900460ff1660028111156117b4577f4e487b7100000000000000000000000000000000000000000000000000000000600052602160045260246000fd5b14156117f5576040517f08c379a00000000000000000000000000000000000000000000000000000000081526004016117ec906140ad565b60405180910390fd5b600260008581526020019081526020016000206000808201600090556001820160006118219190613059565b600282016000808201600090556001820160009055600282016000905560038201600090556004820160009055600582016000905550506008820160006101000a81549060ff02191690556008820160016101000a81549073ffffffffffffffffffffffffffffffffffffffff02191690556009820160006101000a81549073ffffffffffffffffffffffffffffffffffffffff0219169055600a820160009055600b82016000905550506001600085815260200190815260200160002060006118eb919061311f565b600080858152602001908152602001600020600090557f7f1af604dcd671396a44df00c2e3bb1670cd61b71cf9266715e24503307fdc8e846040516119309190613e0d565b60405180910390a150505050565b60008280600260008381526020019081526020016000206000015414611999576040517f08c379a00000000000000000000000000000000000000000000000000000000081526004016119909061412d565b60405180910390fd5b6000600260008681526020019081526020016000209050600160028111156119ea577f4e487b7100000000000000000000000000000000000000000000000000000000600052602160045260246000fd5b8160080160009054906101000a900460ff166002811115611a34577f4e487b7100000000000000000000000000000000000000000000000000000000600052602160045260246000fd5b14611a74576040517f08c379a0000000000000000000000000000000000000000000000000000000008152600401611a6b906141ed565b60405180910390fd5b8373ffffffffffffffffffffffffffffffffffffffff168160090160009054906101000a900473ffffffffffffffffffffffffffffffffffffffff1673ffffffffffffffffffffffffffffffffffffffff16149250505092915050565b600060608060608060606000600260008b81526020019081526020016000209050600360008973ffffffffffffffffffffffffffffffffffffffff1673ffffffffffffffffffffffffffffffffffffffff16815260200190815260200160002060030160009054906101000a900460ff16611b81576040517f08c379a0000000000000000000000000000000000000000000000000000000008152600401611b789061406d565b60405180910390fd5b60016002811115611bbb577f4e487b7100000000000000000000000000000000000000000000000000000000600052602160045260246000fd5b8160080160009054906101000a900460ff166002811115611c05577f4e487b7100000000000000000000000000000000000000000000000000000000600052602160045260246000fd5b1015611c46576040517f08c379a0000000000000000000000000000000000000000000000000000000008152600401611c3d906141ed565b60405180910390fd5b600089611c69576004600083600b01548152602001908152602001600020611c81565b6004600083600a015481526020019081526020016000205b90506000816002018054611c94906144bf565b905011611cd6576040517f08c379a0000000000000000000000000000000000000000000000000000000008152600401611ccd9061400d565b60405180910390fd5b8915611d73578873ffffffffffffffffffffffffffffffffffffffff168260090160009054906101000a900473ffffffffffffffffffffffffffffffffffffffff1673ffffffffffffffffffffffffffffffffffffffff1614611d6e576040517f08c379a0000000000000000000000000000000000000000000000000000000008152600401611d659061418d565b60405180910390fd5b611e06565b8873ffffffffffffffffffffffffffffffffffffffff168260080160019054906101000a900473ffffffffffffffffffffffffffffffffffffffff1673ffffffffffffffffffffffffffffffffffffffff1614611e05576040517f08c379a0000000000000000000000000000000000000000000000000000000008152600401611dfc9061422d565b60405180910390fd5b5b81600001548260010182600001836001018460020185600301848054611e2b906144bf565b80601f0160208091040260200160405190810160405280929190818152602001828054611e57906144bf565b8015611ea45780601f10611e7957610100808354040283529160200191611ea4565b820191906000526020600020905b815481529060010190602001808311611e8757829003601f168201915b50505050509450838054611eb7906144bf565b80601f0160208091040260200160405190810160405280929190818152602001828054611ee3906144bf565b8015611f305780601f10611f0557610100808354040283529160200191611f30565b820191906000526020600020905b815481529060010190602001808311611f1357829003601f168201915b50505050509350828054611f43906144bf565b80601f0160208091040260200160405190810160405280929190818152602001828054611f6f906144bf565b8015611fbc5780601f10611f9157610100808354040283529160200191611fbc565b820191906000526020600020905b815481529060010190602001808311611f9f57829003601f168201915b50505050509250818054611fcf906144bf565b80601f0160208091040260200160405190810160405280929190818152602001828054611ffb906144bf565b80156120485780601f1061201d57610100808354040283529160200191612048565b820191906000526020600020905b81548152906001019060200180831161202b57829003601f168201915b5050505050915080805461205b906144bf565b80601f0160208091040260200160405190810160405280929190818152602001828054612087906144bf565b80156120d45780601f106120a9576101008083540402835291602001916120d4565b820191906000526020600020905b8154815290600101906020018083116120b757829003601f168201915b50505050509050975097509750975097509750505093975093979195509350565b600360003373ffffffffffffffffffffffffffffffffffffffff1673ffffffffffffffffffffffffffffffffffffffff16815260200190815260200160002060030160009054906101000a900460ff16612184576040517f08c379a000000000000000000000000000000000000000000000000000000000815260040161217b9061406d565b60405180910390fd5b84806002600083815260200190815260200160002060000154146121dd576040517f08c379a00000000000000000000000000000000000000000000000000000000081526004016121d49061412d565b60405180910390fd5b600060026000888152602001908152602001600020905060008686868660405160200161220d9493929190613d08565b604051602081830303815290604052805190602001209050604051806080016040528088815260200187815260200186815260200185815250600460008381526020019081526020016000206000820151816000019080519060200190612275929190613099565b506020820151816001019080519060200190612292929190613099565b5060408201518160020190805190602001906122af929190613099565b5060608201518160030190805190602001906122cc929190613099565b5090505088156124725760016002811115612310577f4e487b7100000000000000000000000000000000000000000000000000000000600052602160045260246000fd5b8260080160009054906101000a900460ff16600281111561235a577f4e487b7100000000000000000000000000000000000000000000000000000000600052602160045260246000fd5b101561239b576040517f08c379a0000000000000000000000000000000000000000000000000000000008152600401612392906141ed565b60405180910390fd5b3373ffffffffffffffffffffffffffffffffffffffff168260090160009054906101000a900473ffffffffffffffffffffffffffffffffffffffff1673ffffffffffffffffffffffffffffffffffffffff161461242d576040517f08c379a00000000000000000000000000000000000000000000000000000000081526004016124249061404d565b60405180910390fd5b8082600b01819055507f2094534322befeeedff53195b0c1352101623c8d2a3952fe46e7e9419375f63b886040516124659190613e0d565b60405180910390a1612545565b3373ffffffffffffffffffffffffffffffffffffffff168260080160019054906101000a900473ffffffffffffffffffffffffffffffffffffffff1673ffffffffffffffffffffffffffffffffffffffff1614612504576040517f08c379a00000000000000000000000000000000000000000000000000000000081526004016124fb90613fcd565b60405180910390fd5b8082600a01819055507f255ae3e4871c30bcf3205829288381d28ee9f27e570acae5b85e635da02543248860405161253c9190613e0d565b60405180910390a15b505050505050505050565b600082806002600083815260200190815260200160002060000154146125ab576040517f08c379a00000000000000000000000000000000000000000000000000000000081526004016125a29061412d565b60405180910390fd5b8273ffffffffffffffffffffffffffffffffffffffff166002600086815260200190815260200160002060080160019054906101000a900473ffffffffffffffffffffffffffffffffffffffff1673ffffffffffffffffffffffffffffffffffffffff161461264f576040517f08c379a000000000000000000000000000000000000000000000000000000000815260040161264690613fed565b60405180910390fd5b6000808581526020019081526020016000205491505092915050565b60008060008060008086806002600083815260200190815260200160002060000154146126cd576040517f08c379a00000000000000000000000000000000000000000000000000000000081526004016126c49061412d565b60405180910390fd5b6000600260008a81526020019081526020016000206002016040518060c001604052908160008201548152602001600182015481526020016002820154815260200160038201548152602001600482015481526020016005820154815250509050806000015181602001518260400151836060015184608001518560a00151975097509750975097509750505091939550919395565b606080606080600360008673ffffffffffffffffffffffffffffffffffffffff1673ffffffffffffffffffffffffffffffffffffffff16815260200190815260200160002060030160009054906101000a900460ff166127f8576040517f08c379a00000000000000000000000000000000000000000000000000000000081526004016127ef9061406d565b60405180910390fd5b60006004600088815260200190815260200160002090508060000181600101826002018360030183805461282b906144bf565b80601f0160208091040260200160405190810160405280929190818152602001828054612857906144bf565b80156128a45780601f10612879576101008083540402835291602001916128a4565b820191906000526020600020905b81548152906001019060200180831161288757829003601f168201915b505050505093508280546128b7906144bf565b80601f01602080910402602001604051908101604052809291908181526020018280546128e3906144bf565b80156129305780601f1061290557610100808354040283529160200191612930565b820191906000526020600020905b81548152906001019060200180831161291357829003601f168201915b50505050509250818054612943906144bf565b80601f016020809104026020016040519081016040528092919081815260200182805461296f906144bf565b80156129bc5780601f10612991576101008083540402835291602001916129bc565b820191906000526020600020905b81548152906001019060200180831161299f57829003601f168201915b505050505091508080546129cf906144bf565b80601f01602080910402602001604051908101604052809291908181526020018280546129fb906144bf565b8015612a485780601f10612a1d57610100808354040283529160200191612a48565b820191906000526020600020905b815481529060010190602001808311612a2b57829003601f168201915b5050505050905094509450945094505092959194509250565b600360003373ffffffffffffffffffffffffffffffffffffffff1673ffffffffffffffffffffffffffffffffffffffff16815260200190815260200160002060030160009054906101000a900460ff16612af0576040517f08c379a0000000000000000000000000000000000000000000000000000000008152600401612ae79061406d565b60405180910390fd5b8280600260008381526020019081526020016000206000015414612b49576040517f08c379a0000000000000000000000000000000000000000000000000000000008152600401612b409061412d565b60405180910390fd5b600060026000868152602001908152602001600020905060006002811115612b9a577f4e487b7100000000000000000000000000000000000000000000000000000000600052602160045260246000fd5b8160080160009054906101000a900460ff166002811115612be4577f4e487b7100000000000000000000000000000000000000000000000000000000600052602160045260246000fd5b14612c24576040517f08c379a0000000000000000000000000000000000000000000000000000000008152600401612c1b906141ad565b60405180910390fd5b60008463ffffffff1611612c6d576040517f08c379a0000000000000000000000000000000000000000000000000000000008152600401612c649061408d565b60405180910390fd5b6001600086815260200190815260200160002060405180606001604052803373ffffffffffffffffffffffffffffffffffffffff1681526020018663ffffffff16815260200185815250908060018154018082558091505060019003906000526020600020906003020160009091909190915060008201518160000160006101000a81548173ffffffffffffffffffffffffffffffffffffffff021916908373ffffffffffffffffffffffffffffffffffffffff160217905550602082015181600101556040820151816002019080519060200190612d4d929190613099565b50505060006001600087815260200190815260200160002080549050905080600080888152602001908152602001600020819055507fdb578ec7204282ed3ffcec84ef9d2ca9adda7fb0c0b707010bad5cce9f18f41f8682604051612db3929190613edc565b60405180910390a1505050505050565b8080600260008381526020019081526020016000206000015414612e1c576040517f08c379a0000000000000000000000000000000000000000000000000000000008152600401612e139061412d565b60405180910390fd5b60006002600084815260200190815260200160002090503373ffffffffffffffffffffffffffffffffffffffff168160090160009054906101000a900473ffffffffffffffffffffffffffffffffffffffff1673ffffffffffffffffffffffffffffffffffffffff1614612ec5576040517f08c379a0000000000000000000000000000000000000000000000000000000008152600401612ebc9061418d565b60405180910390fd5b60016002811115612eff577f4e487b7100000000000000000000000000000000000000000000000000000000600052602160045260246000fd5b8160080160009054906101000a900460ff166002811115612f49577f4e487b7100000000000000000000000000000000000000000000000000000000600052602160045260246000fd5b14612f89576040517f08c379a0000000000000000000000000000000000000000000000000000000008152600401612f80906141ed565b60405180910390fd5b60028160080160006101000a81548160ff02191690836002811115612fd7577f4e487b7100000000000000000000000000000000000000000000000000000000600052602160045260246000fd5b02179055507f551f0673976650a1f260d5387f7614f0386a1f815f15e6e4e8bbc077e8be645d8360405161300b9190613e0d565b60405180910390a1505050565b613020613143565b6040518060c001604052808881526020018781526020018681526020018581526020018481526020018381525090509695505050505050565b508054613065906144bf565b6000825580601f106130775750613096565b601f0160209004906000526020600020908101906130959190613179565b5b50565b8280546130a5906144bf565b90600052602060002090601f0160209004810192826130c7576000855561310e565b82601f106130e057805160ff191683800117855561310e565b8280016001018555821561310e579182015b8281111561310d5782518255916020019190600101906130f2565b5b50905061311b9190613179565b5090565b50805460008255600302906000526020600020908101906131409190613196565b50565b6040518060c001604052806000815260200160008152602001600081526020016000815260200160008152602001600081525090565b5b8082111561319257600081600090555060010161317a565b5090565b5b808211156131e857600080820160006101000a81549073ffffffffffffffffffffffffffffffffffffffff021916905560018201600090556002820160006131df9190613059565b50600301613197565b5090565b60006131ff6131fa8461433a565b614309565b90508281526020810184848401111561321757600080fd5b61322284828561447d565b509392505050565b600081359050613239816145d2565b92915050565b60008135905061324e816145e9565b92915050565b60008135905061326381614600565b92915050565b600082601f83011261327a57600080fd5b813561328a8482602086016131ec565b91505092915050565b6000813590506132a281614617565b92915050565b6000813590506132b78161462e565b92915050565b6000602082840312156132cf57600080fd5b60006132dd8482850161322a565b91505092915050565b60008060008060008060c087890312156132ff57600080fd5b600061330d89828a0161323f565b965050602061331e89828a01613254565b955050604087013567ffffffffffffffff81111561333b57600080fd5b61334789828a01613269565b945050606087013567ffffffffffffffff81111561336457600080fd5b61337089828a01613269565b935050608087013567ffffffffffffffff81111561338d57600080fd5b61339989828a01613269565b92505060a087013567ffffffffffffffff8111156133b657600080fd5b6133c289828a01613269565b9150509295509295509295565b6000602082840312156133e157600080fd5b60006133ef84828501613254565b91505092915050565b6000806040838503121561340b57600080fd5b600061341985828601613254565b925050602061342a8582860161322a565b9150509250929050565b60008060006060848603121561344957600080fd5b600061345786828701613254565b93505060206134688682870161323f565b92505060406134798682870161322a565b9150509250925092565b600080600080600080600080610100898b0312156134a057600080fd5b60006134ae8b828c01613254565b985050602089013567ffffffffffffffff8111156134cb57600080fd5b6134d78b828c01613269565b97505060406134e88b828c01613293565b96505060606134f98b828c01613293565b955050608061350a8b828c01613293565b94505060a061351b8b828c01613293565b93505060c061352c8b828c01613293565b92505060e061353d8b828c01613293565b9150509295985092959890939650565b60008060006060848603121561356257600080fd5b600061357086828701613254565b935050602061358186828701613293565b92505060406135928682870161322a565b9150509250925092565b6000806000606084860312156135b157600080fd5b60006135bf86828701613254565b93505060206135d086828701613293565b92505060406135e186828701613293565b9150509250925092565b60008060006060848603121561360057600080fd5b600061360e86828701613254565b935050602061361f868287016132a8565b925050604084013567ffffffffffffffff81111561363c57600080fd5b61364886828701613269565b9150509250925092565b60006020828403121561366457600080fd5b600082013567ffffffffffffffff81111561367e57600080fd5b61368a84828501613269565b91505092915050565b61369c816143f6565b82525050565b6136ab81614408565b82525050565b6136ba81614414565b82525050565b6136c98161446b565b82525050565b60006136da8261436a565b6136e48185614380565b93506136f481856020860161448c565b6136fd816145ad565b840191505092915050565b60006137138261436a565b61371d8185614391565b935061372d81856020860161448c565b80840191505092915050565b6000613746601e83614380565b91507f536572766963653a2063616c6c6572206973206e6f742063726561746f7200006000830152602082019050919050565b6000613786601b83614380565b91507f536572766963653a2063616c6c6572206e6f742063726561746f7200000000006000830152602082019050919050565b60006137c6601583614380565b91507f456e64706f696e743a206e6f74207965742073657400000000000000000000006000830152602082019050919050565b6000613806600f83614380565b91507f5472616e73666572206661696c656400000000000000000000000000000000006000830152602082019050919050565b6000613846601f83614380565b91507f536572766963653a2063616c6c6572206973206e6f742070726f7669646572006000830152602082019050919050565b6000613886601883614380565b91507f4f70657261746f723a206e6f74207265676973746572656400000000000000006000830152602082019050919050565b60006138c6602183614380565b91507f4269643a207072696365206d7573742062652067726561746572207468616e2060008301527f30000000000000000000000000000000000000000000000000000000000000006020830152604082019050919050565b600061392c601983614380565b91507f536572766963653a20616c7265616479206465706c6f796564000000000000006000830152602082019050919050565b600061396c601a83614380565b91507f4f6e6c792070726f76696465722063616e2077697468647261770000000000006000830152602082019050919050565b60006139ac601483614380565b91507f4e6f2066756e647320746f2077697468647261770000000000000000000000006000830152602082019050919050565b60006139ec601183614380565b91507f4e616d65206973206e6f742076616c69640000000000000000000000000000006000830152602082019050919050565b6000613a2c601783614380565b91507f536572766963653a20646f6573206e6f742065786973740000000000000000006000830152602082019050919050565b6000613a6c601c83614380565b91507f4f70657261746f723a20616c72656164792072656769737465726564000000006000830152602082019050919050565b6000613aac601483614380565b91507f496e73756666696369656e74207061796d656e740000000000000000000000006000830152602082019050919050565b6000613aec601583614380565b91507f536572766963653a206e6f742070726f766964657200000000000000000000006000830152602082019050919050565b6000613b2c601183614380565b91507f536572766963653a206e6f74206f70656e0000000000000000000000000000006000830152602082019050919050565b6000613b6c600c83614380565b91507f4269643a206e6f206269647300000000000000000000000000000000000000006000830152602082019050919050565b6000613bac601383614380565b91507f536572766963653a206e6f7420636c6f736564000000000000000000000000006000830152602082019050919050565b6000613bec600083614375565b9150600082019050919050565b6000613c06601583614380565b91507f536572766963653a206e6f74206465706c6f79656400000000000000000000006000830152602082019050919050565b6000613c46601483614380565b91507f536572766963653a206e6f742063726561746f720000000000000000000000006000830152602082019050919050565b6000613c86601a83614380565b91507f536572766963653a20494420616c7265616479206578697374730000000000006000830152602082019050919050565b6000613cc6601783614380565b91507f4269643a20696e646578206f7574206f662072616e67650000000000000000006000830152602082019050919050565b613d0281614451565b82525050565b6000613d148287613708565b9150613d208286613708565b9150613d2c8285613708565b9150613d388284613708565b915081905095945050505050565b6000613d5182613bdf565b9150819050919050565b6000602082019050613d706000830184613693565b92915050565b6000604082019050613d8b6000830185613693565b8181036020830152613d9d81846136cf565b90509392505050565b6000608082019050613dbb6000830187613693565b613dc86020830186613cf9565b613dd56040830185613cf9565b8181036060830152613de781846136cf565b905095945050505050565b6000602082019050613e0760008301846136a2565b92915050565b6000602082019050613e2260008301846136b1565b92915050565b6000604082019050613e3d60008301856136b1565b8181036020830152613e4f81846136cf565b90509392505050565b600060c082019050613e6d60008301896136b1565b8181036020830152613e7f81886136cf565b90508181036040830152613e9381876136cf565b90508181036060830152613ea781866136cf565b90508181036080830152613ebb81856136cf565b905081810360a0830152613ecf81846136cf565b9050979650505050505050565b6000604082019050613ef160008301856136b1565b613efe6020830184613cf9565b9392505050565b6000602082019050613f1a60008301846136c0565b92915050565b60006080820190508181036000830152613f3a81876136cf565b9050613f496020830186613693565b613f566040830185613cf9565b613f6360608301846136a2565b95945050505050565b60006080820190508181036000830152613f8681876136cf565b90508181036020830152613f9a81866136cf565b90508181036040830152613fae81856136cf565b90508181036060830152613fc281846136cf565b905095945050505050565b60006020820190508181036000830152613fe681613739565b9050919050565b6000602082019050818103600083015261400681613779565b9050919050565b60006020820190508181036000830152614026816137b9565b9050919050565b60006020820190508181036000830152614046816137f9565b9050919050565b6000602082019050818103600083015261406681613839565b9050919050565b6000602082019050818103600083015261408681613879565b9050919050565b600060208201905081810360008301526140a6816138b9565b9050919050565b600060208201905081810360008301526140c68161391f565b9050919050565b600060208201905081810360008301526140e68161395f565b9050919050565b600060208201905081810360008301526141068161399f565b9050919050565b60006020820190508181036000830152614126816139df565b9050919050565b6000602082019050818103600083015261414681613a1f565b9050919050565b6000602082019050818103600083015261416681613a5f565b9050919050565b6000602082019050818103600083015261418681613a9f565b9050919050565b600060208201905081810360008301526141a681613adf565b9050919050565b600060208201905081810360008301526141c681613b1f565b9050919050565b600060208201905081810360008301526141e681613b5f565b9050919050565b6000602082019050818103600083015261420681613b9f565b9050919050565b6000602082019050818103600083015261422681613bf9565b9050919050565b6000602082019050818103600083015261424681613c39565b9050919050565b6000602082019050818103600083015261426681613c79565b9050919050565b6000602082019050818103600083015261428681613cb9565b9050919050565b60006020820190506142a26000830184613cf9565b92915050565b600060c0820190506142bd6000830189613cf9565b6142ca6020830188613cf9565b6142d76040830187613cf9565b6142e46060830186613cf9565b6142f16080830185613cf9565b6142fe60a0830184613cf9565b979650505050505050565b6000604051905081810181811067ffffffffffffffff821117156143305761432f61457e565b5b8060405250919050565b600067ffffffffffffffff8211156143555761435461457e565b5b601f19601f8301169050602081019050919050565b600081519050919050565b600081905092915050565b600082825260208201905092915050565b600081905092915050565b60006143a782614451565b91506143b283614451565b9250817fffffffffffffffffffffffffffffffffffffffffffffffffffffffffffffffff04831182151516156143eb576143ea6144f1565b5b828202905092915050565b600061440182614431565b9050919050565b60008115159050919050565b6000819050919050565b600081905061442c826145be565b919050565b600073ffffffffffffffffffffffffffffffffffffffff82169050919050565b6000819050919050565b600063ffffffff82169050919050565b60006144768261441e565b9050919050565b82818337600083830152505050565b60005b838110156144aa57808201518184015260208101905061448f565b838111156144b9576000848401525b50505050565b600060028204905060018216806144d757607f821691505b602082108114156144eb576144ea61454f565b5b50919050565b7f4e487b7100000000000000000000000000000000000000000000000000000000600052601160045260246000fd5b7f4e487b7100000000000000000000000000000000000000000000000000000000600052602160045260246000fd5b7f4e487b7100000000000000000000000000000000000000000000000000000000600052602260045260246000fd5b7f4e487b7100000000000000000000000000000000000000000000000000000000600052604160045260246000fd5b6000601f19601f8301169050919050565b600381106145cf576145ce614520565b5b50565b6145db816143f6565b81146145e657600080fd5b50565b6145f281614408565b81146145fd57600080fd5b50565b61460981614414565b811461461457600080fd5b50565b61462081614451565b811461462b57600080fd5b50565b6146378161445b565b811461464257600080fd5b5056fea2646970667358221220dabdd7a253cb925fc7ed452e7c20a8e2ef9c3f8b30fc0e611722f0ec7650e47564736f6c63430008000033",
  "immutableReferences": {},
  "source": "// SPDX-License-Identifier: MIT\npragma solidity ^0.8.0;\n\n\n// Define the smart contract\ncontract Federation {\n\n    // Possible states of a service\n    enum ServiceState {Open, Closed, Deployed}\n\n    // Structs\n    struct Operator {\n        string name;\n        address payable operatorAddress;\n        uint256 registrationTime;\n        bool registered;\n    }\n\n    struct Endpoint {\n        string serviceCatalogDb;\n        string topologyDb;\n        string nsdId;\n        string nsId; \n    }\n\n    struct ServiceRequirements {\n        uint256 availability; // In percentage * 100 (e.g., 9990 = 99.90%)\n        uint256 maxLatencyMs;\n        uint256 maxJitterMs;\n        uint256 minBandwidthMbps;      \n        uint256 resourceCpuMillicores;\n        uint256 resourceRamMB;\n    }\n\n    struct Service {\n        bytes32 serviceId; // Example \"service123\" -> 0x7365727669636531323300000000000000000000000000000000000000000000\n        string description; \n        ServiceRequirements requirements;\n        ServiceState state;\n        address payable creator;\n        address payable provider;\n        bytes32 endpointConsumer; \n        bytes32 endpointProvider; \n    }\n\n    struct Bid {\n        address payable bidAddress;\n        uint priceWeiPerHour; // Cost in wei per hour of service\n        string location;\n    }\n    \n    // Mappings\n    mapping(bytes32 => uint) private bidCount;\n    mapping(bytes32 => Bid[]) private bids;\n    mapping(bytes32 => Service) private service;\n    mapping(address => Operator) private operator;\n    mapping(bytes32 => Endpoint) private endpoints;\n    mapping(bytes32 => uint256) private lockedPayments;\n    mapping(bytes32 => uint256) private expectedServiceUtilizationHours;\n\n    // Events\n    event OperatorRegistered(address operator, string name);\n    event OperatorRemoved(address operator);\n    event ServiceAnnouncement(bytes32 serviceId, string description);\n    event NewBid(bytes32 serviceId, uint256 biderIndex);\n    event ServiceAnnouncementClosed(bytes32 serviceId);\n    event ConsumerEndpointUpdated(bytes32 serviceId);\n    event ProviderEndpointUpdated(bytes32 serviceId);    \n    event ServiceDeployed(bytes32 serviceId);\n    event ServiceCancelled(bytes32 serviceId);\n\n    // Modifiers\n    modifier onlyRegistered() {\n        require(operator[msg.sender].registered, \"Operator: not registered\");\n        _;\n    }\n\n    modifier serviceExists(bytes32 serviceId) {\n        require(service[serviceId].serviceId == serviceId, \"Service: does not exist\");\n        _;\n    }\n\n    modifier onlyServiceCreator(bytes32 serviceId) {\n        require(service[serviceId].creator == msg.sender, \"Service: caller is not creator\");\n        _;\n    }\n\n    function addOperator(string memory name) public {\n        require(bytes(name).length > 0, \"Name is not valid\");\n        require(!operator[msg.sender].registered, \"Operator: already registered\");\n        \n        operator[msg.sender] = Operator({\n                name: name,\n                operatorAddress: payable(msg.sender),\n                registrationTime: block.timestamp,\n                registered: true\n        });\n        emit OperatorRegistered(msg.sender, name);\n    }\n\n    function removeOperator() public onlyRegistered {\n        delete operator[msg.sender];\n        emit OperatorRemoved(msg.sender);\n    }\n\n    function getOperatorInfo(address callAddress) public view returns (\n        string memory name,\n        address opAddress,\n        uint256 registrationTime,\n        bool registered\n    ) {\n        Operator storage op = operator[callAddress];\n        require(op.registered == true, \"Operator: not registered\");\n        return (op.name, op.operatorAddress, op.registrationTime, op.registered);\n    }\n\n\n    function createServiceRequirements(\n        uint256 availability,\n        uint256 maxLatencyMs,\n        uint256 maxJitterMs,\n        uint256 minBandwidthMbps,\n        uint256 resourceCpuMillicores,\n        uint256 resourceRamMB\n    ) internal pure returns (ServiceRequirements memory) {\n        return ServiceRequirements({\n            availability: availability,\n            maxLatencyMs: maxLatencyMs,\n            maxJitterMs: maxJitterMs,\n            minBandwidthMbps: minBandwidthMbps,\n            resourceCpuMillicores: resourceCpuMillicores,\n            resourceRamMB: resourceRamMB\n        });\n    }\n\n    function announceService(\n        bytes32 serviceId,\n        string memory description,\n        uint256 availability,\n        uint256 maxLatencyMs,\n        uint256 maxJitterMs,\n        uint256 minBandwidthMbps,\n        uint256 resourceCpuMillicores,\n        uint256 resourceRamMB\n    ) public onlyRegistered {\n        require(service[serviceId].serviceId != serviceId, \"Service: ID already exists\");\n\n        ServiceRequirements memory reqs = createServiceRequirements(\n            availability,\n            maxLatencyMs,\n            maxJitterMs,\n            minBandwidthMbps,\n            resourceCpuMillicores,\n            resourceRamMB\n        );\n\n        Service storage newService = service[serviceId];\n\n        newService.serviceId = serviceId;\n        newService.description = description;\n        newService.state = ServiceState.Open;\n        newService.creator = payable(msg.sender);\n        newService.provider = payable(msg.sender);\n        newService.requirements = reqs;\n\n        emit ServiceAnnouncement(serviceId, description);\n    }\n\n    function updateEndpoint(\n        bool isProvider, \n        bytes32 serviceId,\n        string memory endpointServiceCatalogDb, \n        string memory endpointTopologyDb,\n        string memory endpointNsdId, \n        string memory endpointNsId\n    ) public onlyRegistered serviceExists(serviceId) {\n        Service storage currentService = service[serviceId];\n       \n        bytes32 endpointKeccak = keccak256(abi.encodePacked(endpointServiceCatalogDb, endpointTopologyDb, endpointNsdId, endpointNsId));\n        endpoints[endpointKeccak] = Endpoint(endpointServiceCatalogDb, endpointTopologyDb, endpointNsdId, endpointNsId);\n\n        if(isProvider) {\n            require(currentService.state >= ServiceState.Closed, \"Service: not closed\");\n            require(currentService.provider == msg.sender, \"Service: caller is not provider\");\n            currentService.endpointProvider = endpointKeccak;\n            emit ProviderEndpointUpdated(serviceId);\n        }\n        else {\n            require(currentService.creator == msg.sender, \"Service: caller is not creator\");\n            currentService.endpointConsumer = endpointKeccak;\n            emit ConsumerEndpointUpdated(serviceId);\n        }\n    }\n        \n    function getServiceState(bytes32 serviceId) public view returns (ServiceState) {\n        return service[serviceId].state;\n    }\n\n    function getServiceRequirements(bytes32 serviceId) public view serviceExists(serviceId) returns (\n        uint256 availability,\n        uint256 maxLatencyMs,\n        uint256 maxJitterMs,\n        uint256 minBandwidthMbps,\n        uint256 resourceCpuMillicores,\n        uint256 resourceRamMB\n    ) {\n        ServiceRequirements memory reqs = service[serviceId].requirements;\n        return (\n            reqs.availability,\n            reqs.maxLatencyMs,\n            reqs.maxJitterMs,\n            reqs.minBandwidthMbps,\n            reqs.resourceCpuMillicores,\n            reqs.resourceRamMB\n        );\n    }\n\n    function getServiceInfo(\n        bytes32 serviceId, \n        bool isProvider, \n        address callAddress\n    ) public view returns (bytes32, string memory, string memory, string memory, string memory, string memory) {\n        Service storage currentService = service[serviceId];\n        require(operator[callAddress].registered, \"Operator: not registered\");\n        require(currentService.state >= ServiceState.Closed, \"Service: not closed\");\n\n        Endpoint storage ep = isProvider\n            ? endpoints[currentService.endpointConsumer]\n            : endpoints[currentService.endpointProvider];\n        \n        require(bytes(ep.nsdId).length > 0, \"Endpoint: not yet set\");\n\n        if(isProvider) {\n            require(currentService.provider == callAddress, \"Service: not provider\");\n        } else {\n            require(currentService.creator == callAddress, \"Service: not creator\");\n        }\n\n        return (currentService.serviceId, currentService.description, ep.serviceCatalogDb, ep.topologyDb, ep.nsdId, ep.nsId);\n\n    }\n\n    function getServiceEndpoint(bytes32 endpointId, address callAddress) public view returns (string memory, string memory, string memory, string memory) {\n        require(operator[callAddress].registered, \"Operator: not registered\");\n\n        Endpoint storage ep = endpoints[endpointId];\n        return (ep.serviceCatalogDb, ep.topologyDb, ep.nsdId, ep.nsId);\n    }\n\n    function placeBid(\n        bytes32 serviceId, \n        uint32 priceWeiPerHour,\n        string memory location\n    ) public onlyRegistered serviceExists(serviceId) {\n        Service storage currentService = service[serviceId];\n        require(currentService.state == ServiceState.Open, \"Service: not open\");\n        require(priceWeiPerHour > 0, \"Bid: price must be greater than 0\");\n\n        // require(msg.sender != currentService.creator, \"Bid: cannot bid on own service\");\n\n        bids[serviceId].push(Bid(payable(msg.sender), priceWeiPerHour, location));\n        uint256 index = bids[serviceId].length;\n        bidCount[serviceId] = index;\n\n        emit NewBid(serviceId, index);\n    }\n\n    function getBidCount(bytes32 serviceId, address callAddress) public view serviceExists(serviceId) returns (uint256) {\n        require(service[serviceId].creator == callAddress, \"Service: caller not creator\");\n        return bidCount[serviceId];\n    }\n\n    function getBidInfo(bytes32 serviceId, uint256 index, address callAddress) public view serviceExists(serviceId) returns (address, uint, uint256, string memory) {\n        require(service[serviceId].creator == callAddress, \"Service: caller not creator\");\n        Bid[] storage bidPool = bids[serviceId];\n        require(bidPool.length > 0, \"Bid: no bids\");\n        require(index < bidPool.length, \"Bid: index out of range\");\n\n        Bid storage b = bidPool[index];\n        return (b.bidAddress, b.priceWeiPerHour, index, b.location);\n    }\n\n    function chooseProvider(bytes32 serviceId, uint256 biderIndex, uint256 expectedHours) payable public serviceExists(serviceId) onlyServiceCreator(serviceId) {\n        Service storage currentService = service[serviceId];\n        require(currentService.state == ServiceState.Open, \"Service: not open\");\n        require(biderIndex < bids[serviceId].length, \"Bid: index out of range\");\n    \n        Bid storage winningBid = bids[serviceId][biderIndex];\n        uint256 requiredAmount = winningBid.priceWeiPerHour * expectedHours;\n        require(msg.value >= requiredAmount, \"Insufficient payment\");\n\n        currentService.state = ServiceState.Closed;\n        currentService.provider = bids[serviceId][biderIndex].bidAddress;\n        lockedPayments[serviceId] = msg.value;\n        expectedServiceUtilizationHours[serviceId] = expectedHours;\n\n        emit ServiceAnnouncementClosed(serviceId);\n    }\n\n\n    function withdrawPayment(bytes32 serviceId) public serviceExists(serviceId) {\n        Service storage currentService = service[serviceId];\n        require(currentService.state == ServiceState.Deployed, \"Service: not deployed\");\n        require(currentService.provider == msg.sender, \"Only provider can withdraw\");\n\n        uint256 amount = lockedPayments[serviceId];\n        require(amount > 0, \"No funds to withdraw\");\n\n        lockedPayments[serviceId] = 0;\n        (bool sent, ) = msg.sender.call{value: amount}(\"\");\n        require(sent, \"Transfer failed\");\n    }\n\n\n    function isWinner(bytes32 serviceId, address callAddress) public view serviceExists(serviceId) returns (bool) {\n        Service storage currentService = service[serviceId];\n        require(currentService.state == ServiceState.Closed, \"Service: not closed\");\n        \n        return currentService.provider == callAddress;\n    }\n\n    function serviceDeployed(bytes32 serviceId) public serviceExists(serviceId) {\n        Service storage currentService = service[serviceId];\n        require(currentService.provider == msg.sender, \"Service: not provider\");\n        require(currentService.state == ServiceState.Closed, \"Service: not closed\");\n        \n        currentService.state = ServiceState.Deployed;\n        \n        emit ServiceDeployed(serviceId);\n    }\n\n    function cancelService(bytes32 serviceId) public serviceExists(serviceId) onlyServiceCreator(serviceId) {\n        Service storage currentService = service[serviceId];\n        require(currentService.state != ServiceState.Deployed, \"Service: already deployed\");\n\n        delete service[serviceId];\n        delete bids[serviceId];\n        delete bidCount[serviceId];\n\n        emit ServiceCancelled(serviceId);\n    }\n}\n\n\n",
  "sourcePath": "/smart-contracts/contracts/Federation.sol",
  "compiler": {
    "name": "solc",
    "version": "0.8.0+commit.c7dfd78e.Emscripten.clang"
  },
  "schemaVersion": "3.4.16",
  "updatedAt": "2025-08-16T13:49:10.881Z",
  "networkType": "ethereum",
  "devdoc": {
    "kind": "dev",
    "methods": {},
    "version": 1
  },
  "userdoc": {
    "kind": "user",
    "methods": {},
    "version": 1
  }
}